:020000040800F2
:10000000E00700204D020008192300089520000891
:1000100015230008F9030008012B00080000000068
:100020000000000000000000000000002123000884
:1000300015040008000000001D2300082523000807
:1000400067020008670200086702000867020008EC
:1000500067020008670200086702000867020008DC
:100060001904000867020008670200086702000818
:1000700067020008670200086702000867020008BC
:1000800067020008670200086702000867020008AC
:10009000670200086702000867020008670200089C
:1000A00067020008F52300086702000867020008DD
:1000B000670200086702000867020008670200087C
:1000C000670200086702000867020008670200086C
:1000D000670200086702000867020008670200085C
:1000E000670200086702000867020008670200084C
:1000F000670200086702000867020008670200083C
:10010000670200086702000867020008670200082B
:10011000670200086702000867020008670200081B
:1001200067020008FD030008670200086702000874
:1001300067020008670200086702000867020008FB
:1001400067020008670200086702000867020008EB
:10015000670200080904000867020008F52A000881
:1001600067020008670200086702000867020008CB
:10017000670200086702000867020008000000002C
:1001800067020008670200086702000867020008AB
:10019000670200086702000867020008670200089B
:1001A00000000000000000006702000800F002F8F4
:1001B00000F03CF80AA090E8000C82448344AAF1C5
:1001C0000107DA4501D100F031F8AFF2090EBAE8C3
:1001D0000F0013F0010F18BFFB1A43F0010318477B
:1001E000C0290000E0290000103A24BF78C878C177
:1001F000FAD8520724BF30C830C144BF04680C602D
:10020000704700000023002400250026103A28BF74
:1002100078C1FBD8520728BF30C148BF0B60704778
:100220001FB502F09FFC1FBD10B510BD00F0A9F86E
:100230001146FFF7F5FF02F065FC00F0C7F803B4C4
:10024000FFF7F2FF03BC00F0CFF800000948804739
:1002500009480047FEE7FEE7FEE7FEE7FEE7FEE7A8
:10026000FEE7FEE7FEE7FEE704480549054A064BC0
:1002700070470000E1230008AD010008E001002004
:10028000E0070020E0030020E003002053EA020C16
:1002900000F069802DE9F04B4FF00006002B1FBFE6
:1002A000B3FA83F503FA05F424FA05F65E4012BFAB
:1002B0001643B2FA82F502FA05F4C5F120051EBF15
:1002C00022FA05FC44EA0C04203556EA044C4FEAB5
:1002D000144418BF641C4FF000084FF0000990420E
:1002E00071EB030C39D3002919BFB1FA81F701FA78
:1002F00007F6B0FA80F700FA07F6C7F120071EBF2D
:1003000020FA07FC46EA0C062037B6FBF4FCA7EB04
:100310000507103F07F01F0BCBF120062CFA06F65D
:100320000CFA0BFB44BFB3460026202FA4BF5E4649
:100330004FF0000B5BEA060C08BF4FF0010B19EB06
:100340000B0948EB0608ABFB027C06FB02CC0BFB5F
:1003500003CCC01B71EB0C01C1E70B4602464146C2
:100360004846BDE8F08B13B5084318BF4FF0FF3087
:100370000146AFF30080BDE81C40704770477047EE
:100380007047754600F02CF8AE46050069465346A6
:1003900020F00700854618B020B5FFF765FFBDE8DF
:1003A00020404FF000064FF000074FF000084FF0DC
:1003B000000BAC46ACE8C009ACE8C009ACE8C00929
:1003C000ACE8C00921F007018D46704710B504461E
:1003D000AFF300802046BDE81040FFF730BF0000BB
:1003E000004870471000002001491820ABBEFEE70E
:1003F0002600020070470000FEE7000040F2840083
:10040000C2F2000000F06AB840F2E400C2F200005C
:1004100000F064B870470000042000F043BA000008
:1004200072B600BFFEE7000070B5866D044600F0AE
:100430001FFB94F83510022928D105462068216C4D
:10044000026822F016020260426922F080024261D4
:1004500009B9A16C19B1016821F0080101600168B6
:1004600021F00101016000BF20680068C00715D0BD
:1004700000F0FEFA401B0628F6D32020606503201A
:1004800084F83500002184F8341070BD8020606548
:100490000120002184F8341070BD00BFE06D3F21C1
:1004A00001FA00F0B060012084F83500002000213E
:1004B00084F8341070BD000090F83510022909D17D
:1004C000052180F835100068016821F00101016004
:1004D000002070478021416501207047F0B581B050
:1004E00004460020009040F20800C2F200000268BA
:1004F000D4E9166048F2B51337680821C1F64E33C7
:1005000081403942A2FB03250CD0226813685B07A7
:1005100008D5136823F004031360B160616D41F0E6
:100520000101616501218140394208D02268526988
:10053000120604D5B160616D41F0020161650421CC
:100540008140394208D022681268920704D5B16010
:10055000616D41F00401616510218140394217D07D
:1005600020680268120713D5B1600268016852035F
:1005700008D4C90508D4016821F008010160216C84
:1005800021B905E008033FD4216C09B12046884712
:10059000E16D202000FA01F23A4241D02068036860
:1005A000DB063DD5B26094F835300268052B1BD1CF
:1005B00022F016020260426922F080024261226C3F
:1005C0000AB9A26C1AB1026822F0080202603F2048
:1005D0008840B060012084F83500216D002000299A
:1005E00084F8340052D157E00168520310D4C90591
:1005F00012D4016821F010010160012084F8350057
:10060000002084F8340007E0A16C0029BED1BFE7C8
:10061000080301D4616C00E0E16B09B12046884712
:10062000606DC8B3606DC0072ED0052084F835001A
:100630002068A90A026822F001020260009A0132D1
:100640008A4200921AD80268D20717D0009A013263
:100650008A42009212D80268D2070FD0009A013263
:100660008A4200920AD80268D20707D0009A013263
:100670008A42009202D80268D207DFD1012084F8B2
:100680003500002084F83400E16C29B1204601B027
:10069000BDE8F040084700BF01B0F0BD2DE9F041D2
:1006A000044600F0E5F9ECB10546022084F8350077
:1006B0000020216884F83400086820F001000860F8
:1006C00021680868C00711D000F0D2F9401B052846
:1006D000F6D9032520230320636584F83550BDE84F
:1006E000F08100BF0120BDE8F08100BF086848F23A
:1006F0003F02CFF21002D4E9013500EA020C04F106
:100700000C0898E8C10143EA0C032B431843D4E9D1
:10071000072E304338431043626A40EA0E00042A31
:1007200040EA08031CD1206BD4E90A2E40EA0E00EF
:10073000184308604869BEF1000F20F0030040EA4A
:10074000020040F0040C11D0B8F5005F36D0B8F1CB
:10075000000F45D1022A46D0012A3BD032B942E0EF
:100760000B60486920F0070040EA020C01F0F80035
:100770004AF6AB221038CAF6AA22A0FB02231A09B5
:1007800042F69633C0F600039A5C40F2FF335F28CE
:100790004FF03F00C1F814C021EA030100FA02F053
:1007A00088BF0431C4E916128860002301250020A7
:1007B000636584F83550BDE8F08100BF032AD5D8C1
:1007C000012540230120DFE802F0030E030500BFEE
:1007D00082E700BFAEF1C070B0FA80F0400904E0DB
:1007E000032A04D3C2D1CEF300600028BED0012575
:1007F00040230120636584F83550BDE8F081000096
:1008000070B590F834C0BCF1010F46D04FF0010C28
:1008100080F834C0D0F858E090F835C0BCF1010F32
:1008200038D14FF0020C80F835C04FF0000CC0F802
:1008300054C0D0F800C08468056CC06DDCF800605E
:10084000402C26F48026CCF80060CCF804300B460F
:1008500004BF13460A463F2101FA00F0CCF80830E5
:10086000CCF80C20CEF80800DCF8000040F01600B0
:10087000CCF800002DB1DCF8000040F00800CCF806
:100880000000DCF8000040F00100CCF8000000207F
:1008900070BD00BF002180F83410022070BD000040
:1008A0007047000043F61441C4F201010A68024295
:1008B00014BF08607047FFF7F3BF00002DE9F04F49
:1008C00082B000F13E4242F2004502F1FF77C4F2ED
:1008D00002050A2243F6004E4FEAB726A84208BF97
:1008E0000922C4F2010E092E38BF4FEAB7220125B2
:1008F000002600274FF00008009208E008F10108E8
:100900000437B8F1100F06F1020600F0A7800C685A
:1009100005FA08F914EA090FF0D0D1F804B003225F
:100920000BF0030CACF10104B240012C6FEA020A97
:1009300010D88268CC6802EA0A02B440224382607E
:100940004268CBF3001422EA090204FA08F42243B5
:10095000426005E0BCF1030F02D14FF0030C20E030
:10096000C2688C6802EA0A02B4402243BCF1020F5A
:10097000C26016D16FF0030202EA58020244D2F8B4
:1009800020C007F01C050F230C69AB402CEA0303C1
:1009900004FA05F52B431362D1F804B001250BF0DE
:1009A000030C02680CFA06F302EA0A021A431BF46B
:1009B000403F0260A2D0002243F644030192C4F2F9
:1009C00002031A684FF6084C42F480421A601A6813
:1009D000CFF6FF7C02F480420192019A28F00302D4
:1009E000724452F80C3007F00C050F24AC40A343BE
:1009F000009C04FA05F52B4342F80C30DEF8082081
:100A00004B6842EA090543F60C4CDC0258BF22EA67
:100A10000905CEF80850C4F2010CDCF800209C0255
:100A200042EA090558BF22EA0905CCF80050DEF871
:100A300004209C0342EA090558BF22EA0905CEF8C2
:100A40000450DEF80020DB0342EA090558BF22EA21
:100A50000905CEF80050012550E700BF02B0BDE8FF
:100A6000F08F0000002A08BF090481617047000070
:100A700040F2D810C2F200000068704740F2000057
:100A800040F2D811C2F20000C2F2000100780A68F8
:100A9000104408607047000080B543F60040C4F27F
:100AA0000200016841F400710160016841F4806155
:100AB0000160016841F480710160032000F088F852
:100AC0000F2000F005F800F027F8002080BD00009E
:100AD00070B540F20006C2F2000640F2080132781A
:100AE000C2F200014FF47A730968B3FBF2F20446D4
:100AF000B1FBF2F1084600F081FB0F2C4FF001052D
:100B000008D838B94FF0FF3021460022002500F008
:100B100033F87460284670BD82B0002043F640016F
:100B20000190C4F202014A6842F480424A604A6875
:100B300002F480420192019A0090086840F08050CF
:100B40000860086800F080500090009802B070477C
:100B5000002848BF7047C1B200F01F00012202FA0E
:100B600000F04EF20012CEF2000242EAD10121F072
:100B7000030108607047000010B54EF60C5CCEF221
:100B8000000CDCF80030C3F3022E8EF00704042CB6
:100B900028BF0424BEF103034FF0FF3E0EFA04F415
:100BA00038BF0023A14399400EFA03F39A4311433F
:100BB00000F00F0200F160430901043A03F56443B9
:100BC0006244002848BF02F10C03197010BD0000F8
:100BD0004EF60C51CEF200010A684FF6FF031A40A0
:100BE00060F30A2242F0806040F0FD7008607047B8
:100BF00070B582B00020019043F64000C4F20200BC
:100C00000168402641F0805101600068C4F20E2660
:100C100000F080500190019847F204050120C4F2D1
:100C200000053060FFF724FF044600BF2868C003BA
:100C300006D4FFF71DFF001BB0F57A7FF6D90EE052
:100C400001207060FFF714FF044600BF286880038E
:100C500008D4FFF70DFF001BB0F57A7FF6D903200B
:100C600002B070BD002002B070BD00002DE9F0415F
:100C7000002800F08B8043F60808C4F202080446FE
:100C8000D8F8F8030D4600F00F00884207D288F824
:100C9000F853D8F8F80300F00F00A84276D1206886
:100CA000810717D5410705D5D8F8001041F4E05168
:100CB000C8F80010010705D5D8F8001041F46041CC
:100CC000C8F80010D8F80010A26821F0F001114314
:100CD000C8F80010C0073FD1D8F8F80300F00F00A3
:100CE000A84207D988F8F853D8F8F80300F00F00A5
:100CF000A8424BD12068410707D5D8F80010E26818
:100D000021F4E0511143C8F80010000708D5D8F8C5
:100D10000000216920F4604040EAC100C8F80000EA
:100D200000F07CF8D8F8001042F67E32C1F30311CF
:100D3000C0F60002515C40F2080220FA01F140F2D4
:100D40000400C2F200000068C2F200021160FFF766
:100D5000BFFE0020BDE8F0816068811E022907D235
:100D600058F8081C89015CBF0120BDE8F08111E042
:100D7000012807D158F8081C89035CBF0120BDE891
:100D8000F08107E058F8081C890703D40120BDE86A
:100D9000F08100BFD8F8001021F003010843C8F823
:100DA0000000FFF765FE064641F28837D8F80000DC
:100DB000616800F00C00B0EB810F8DD0FFF758FE9A
:100DC000801BB842F2D90320BDE8F08140F2080050
:100DD00043F60801C2F20000C4F20201006809688B
:100DE00042F68E32C1F38221C0F60002515CC84047
:100DF0007047000040F2080043F60801C2F200000C
:100E0000C4F202010068096842F68E32C1F3423131
:100E1000C0F60002515CC8407047000010B543F6B0
:100E20000404C4F20204606800F00C0008280BD02F
:100E3000042819BF42F20040C0F2F40041F600302D
:100E4000C0F2B70010BD00BF2068216823684902C6
:100E500041F60031C0F2B70100F03F02C3F3881041
:100E60005CBF42F20041C0F2F401A1FB000100238B
:100E7000FFF70CFA21680222C1F3014102EB4101A4
:100E8000B0FBF1F010BD00002DE9F04182B0002868
:100E900068D00446007843F60006C007C4F2020694
:100EA0000BD0B06800F00C00042840F09F80306840
:100EB000800302D56068002854D0207880071AD5B6
:100EC000B06810F00C0F09D0B06800F00C000828D2
:100ED00040F0A6807068400200F1A2803068800770
:100EE00002D5E06801283DD13068216920F0F80082
:100EF00040EAC10030602078000737D420784007EE
:100F00004CD4A56955B3B06800F00C00082840F037
:100F1000BB80012D26D07068E16900F480028A420E
:100F200020D1216A00F03F028A421BD147F6C071EE
:100F3000626A0140B1EB821F14D1A16A4FF6FF73C0
:100F4000C903994300F44032A1F580318A4209D1A6
:100F5000E16A00F07060B0EB016F03D1002002B0D5
:100F6000BDE8F081012002B0BDE8F0816069002891
:100F700040F20000C4F2472076D00121C0F8801E64
:100F8000FFF776FD054600BF706F8007B6D4FFF708
:100F90006FFD401B0228F7D9DDE000BF306C10F078
:100FA00080580AD100200190306C40F080503064AD
:100FB000306C00F080500190019847F20007C4F2B5
:100FC00000073868C00541D4386840F48070386044
:100FD000FFF74EFD054600BF3868C00536D4FFF761
:100FE00047FD401B0228F7D9B5E000BFB06800F00C
:100FF0000C00082803D1706840023FF558AF6068C4
:10100000B0F5803F07D0B0F5A02F40F08D8030685C
:1010100040F480203060306840F4803030608DE0F3
:10102000E068002852D00020C4F24720012101606E
:10103000FFF71EFD054600BF306880073FF554AF3F
:10104000FFF716FD401B0228F6D984E0A0680128AE
:1010500005D005284ED1306F40F004003067306F66
:1010600040F0010030674FE00021C0F8801EFFF71C
:10107000FFFC0546706F80077FF540AFFFF7F8FC77
:10108000401B0228F6D966E00027C4F2472700205B
:101090003866FFF7EDFC022D05460BD13068800164
:1010A0005ED5FFF7E5FC401B02284FF00300F5D9A1
:1010B00055E700BF306880017FF550AFFFF7D8FCDF
:1010C000401B02284FF00300F4D948E70020C4F287
:1010D000472000210160FFF7CBFC05463068800700
:1010E0007FF509AFFFF7C4FC401B02284FF0030057
:1010F000F4D934E7316F002821F001013167316FF5
:1011000021F0040131674DD0FFF7B2FC054641F2F2
:10111000883700BF306F800756D4FFF7A9FC401B0B
:10112000B842F7D917E000BF3168002821F48031B8
:101130003160316821F4802131604FD0FFF798FC95
:10114000054600BF306880033FF5B7AEFFF790FC5F
:10115000401B6428F6D9032002B0BDE8F08100BF2F
:1011600004F11C052FCD084340EA8210D9034FF645
:10117000FF729143A1F5803140EA05600843706039
:1011800001203866FFF774FC044600BF3068800118
:101190003FF5E4AEFFF76CFC001B02284FF00300A4
:1011A000F4D9DCE6FFF764FC054641F2883700BF5E
:1011B000306F800708D5FFF75BFC401BB8424FF04B
:1011C0000300F5D9CBE600BFB8F1000F7FF499AE6C
:1011D000306C20F08050306493E600BFFFF748FC8D
:1011E000054600BF306880037FF567AEFFF740FC1F
:1011F000401B64284FF00300F4D9B0E6411E0020E4
:10120000B0EB116F1CBF012070474EF21002CEF2FE
:10121000000251604EF62351CEF20001F0230B7014
:101220000721906011607047704700007047000010
:10123000B0B590F83C20012A04BF0220B0BD01F1F6
:1012400008053CCDD1E900CE23F47C5322F4705242
:101250001A432EF4F0431A432CF4E0431A4324F4C7
:10126000C0431A432A43C96922F4804203681143E8
:101270005964002180F83C100846B0BD10B590F8C4
:101280003C20012A4FF0020251D080F83D20026834
:10129000D2F804E0D2F808C00C682EF070032343A3
:1012A00041F2FF74C4F20004A24253600EDC40F22B
:1012B000FF73C4F200039A4216DCB2F1804F2BD0C8
:1012C00040F20043C4F2000324E000BF40F2FF33C9
:1012D000C4F201039A4213DC41F60003C4F2000396
:1012E0009A4219D0002313E040F60003C4F2000331
:1012F0009A4211D040F60043C4F200030AE000BF56
:1013000044F20003C4F201039A4205D040F20043C4
:10131000C4F201039A4204D149682CF080031943B6
:1013200091600121002280F83D1080F83C20104699
:1013300010BD00007047000070B504460068C56825
:101340000669B10716D515F0020113D06FF002013E
:101350000161012121778069800703D02046FFF7D2
:10136000E9FF05E0204600F08FF8204600F0F2F992
:1013700000202077700719D515F0040016D02068DA
:101380006FF00401016102212177806910F4407F30
:1013900004D02046FFF7CEFF06E000BF204600F055
:1013A00073F8204600F0D6F900202077300717D5D3
:1013B00015F0080014D020686FF0080101610421C5
:1013C0002177C069800703D02046FFF7B3FF05E00F
:1013D000204600F059F8204600F0BCF900202077A4
:1013E000F00619D515F0100016D020686FF0100126
:1013F000016108212177C06910F4407F04D02046A4
:10140000FFF798FF06E000BF204600F03DF82046B9
:1014100000F0A0F900202077F00718BF15F00100B8
:1014200002D1300609D412E020686FF00101016199
:10143000204600F091F9300609D515F0800006D05D
:1014400020686FF0800101612046FFF7EDFE700615
:1014500009D515F0400006D020686FF04001016109
:10146000204600F07BF9B00658BF70BD15F0200093
:1014700008D021686FF0200220460A61BDE8704064
:10148000FFF7D4BE70BD0000704700002DE9F043A7
:1014900090F83C30012B04BF0220BDE8F0834FEAF6
:1014A000B202032A00F2FC80DFE802F0023E7EBEB8
:1014B000036840F200471C6A1A6A24F0020422F012
:1014C00001021A621A46D3F804E052F818CF8E6867
:1014D00043F48065C4F20107BD4244EA060405D125
:1014E000CE6824F00C0426F0040634430E68BD4296
:1014F00007D1D1E905572EF4407E45EA0E0545EAAD
:10150000070E2CF073073743C3F804E09F614F6860
:1015100009695F631C629F6947F008079F619F69C3
:1015200027F004079F61B1E0036840F200481C6A9D
:101530001A6A24F0200422F010021A621A46D3F824
:1015400004C052F818EF8F6843F48065C4F20108B4
:10155000454544EA071407D1CF686FF0400624F0F0
:10156000C00406EA07163443D1F80090454506D179
:10157000D1E905562CF440672E4347EA860C2EF439
:10158000E64747EA0927C3F804C09F614F68096925
:101590009F631C629F6947F400679F619F6927F4FE
:1015A00080679F6171E000BF036840F200481C6AD9
:1015B0001A6A24F4007422F480721A621A46D3F86C
:1015C00004C052F81CEF8F6843F48065C4F2010830
:1015D000454544EA072408D1CF6840F2FF463F0260
:1015E00024F4406427EA06063443D1F800904545C8
:1015F00006D1D1E905562CF440572E4347EA061C84
:101600002EF0730747EA0907C3F804C0DF614F688B
:101610000969DF631C62DF6947F00807DF61DF6982
:1016200027F00407DF6131E0036840F20045D3F89A
:1016300020C01A6A43F4806722F480521A621A4664
:101640005C6852F81CEFD1F800808E68C4F2010586
:10165000AF4204D14D6924F4804444EA85142CF44B
:10166000005747EA06372EF4E64646EA08265C604D
:10167000DE614E6809691E641F62DF6947F4006716
:10168000DF61DF6927F48067DF61090213681943AE
:1016900011600021002280F83C200846BDE8F0835C
:1016A0000121002280F83C200846BDE8F0830000BC
:1016B000002804BF0120704710B5044690F83D0093
:1016C00028B9002084F83C00204600F01FF80220D2
:1016D00084F83D002068211D00F092FE012084F86E
:1016E000460084F83E0084F83F0084F8400084F807
:1016F000410084F8420084F8430084F8440084F8F0
:10170000450084F83D00002010BD000080B582B087
:1017100000680021C4F2010188421CBF02B080BDF4
:101720000020019043F64400C4F202000168002248
:1017300041F0010101600068002100F0010001900A
:1017400001981920FFF718FA192002B0BDE880406F
:10175000FFF7FEB9704700007047000070470000B7
:101760007047000070470000B0B582B004460068C2
:101770000168C368426901F02F05202D03F02005A0
:1017800006D12DB1204602B0BDE8B04001F0BAB894
:101790005FEA017C1EBF02F0010E03F4907212EBAF
:1017A0000E0253D1226B012A05D111F0100218BF8D
:1017B00013F0100236D10A0622D513F080021FD092
:1017C00094F8411021293FD1A168B1F5805F03D180
:1017D0002169002900F07282216A4A1C226209787C
:1017E0004160E18C01390A04E1842DD1C16821F006
:1017F0008001C160C16841F04001C16002B0B0BD6C
:10180000490621D513F040011ED0C16821F04001E6
:10181000C1602021204684F8411002B0BDE8B040EC
:1018200000F034BC002101910168019141680191EF
:1018300001994069400613D4A08DE18DE28D002A04
:1018400018BF884240F0BC8102B0B0BDCA0718BFC3
:1018500013F4807240F0B8804A0700F1BB80C0E00A
:10186000E06B016849688AB2002AEDD0A38D9A42E4
:10187000EAD2E185C069B0F5807F00F09C802068E5
:1018800050E8030F216820F4807041E80302DAB1C8
:10189000206850E8030F216820F4807041E80302BB
:1018A00092B1206850E8030F216820F4807041E86D
:1018B00003024AB1206850E8030F216820F48070C9
:1018C00041E80302002ADAD1206850E8050F2168B8
:1018D00020F0010041E80502DAB1206850E8050F68
:1018E000216820F0010041E8050292B1206850E82B
:1018F000050F216820F0010041E805024AB1206887
:1019000050E8050F216820F0010041E80502002A97
:10191000DAD1206850E8050F216820F0400041E846
:101920000502DAB1206850E8050F216820F0400078
:1019300041E8050292B1206850E8050F216820F0C7
:10194000400041E805024AB1206850E8050F2168CF
:1019500020F0400041E80502002ADAD1202084F876
:10196000420000202063206850E8030F216820F027
:10197000100041E80302DAB1206850E8030F216843
:1019800020F0100041E8030292B1206850E8030FF4
:10199000216820F0100041E803024AB1206850E8B5
:1019A000030F216820F0100041E80302002ADAD179
:1019B000E06BFEF739FD02206063A08DE18D401AD7
:1019C00081B2204675E100BF626C42F001026264A0
:1019D0004A0706D5BEF1000F03D0626C42F0020246
:1019E00062648A0706D5BEF1000F03D0626C42F034
:1019F00004026264BCF1000F09D545EA0E02B2FA96
:101A000082F2520903D1626C42F008026264626C95
:101A1000002A3FF419AF11F0200118BF002D03D0A8
:101A2000204600F06FFF20684069616C00F04000C4
:101A300001F00801401800F0B58000BF206850E8B0
:101A4000030F216820F4907041E80302BAB32068C4
:101A500050E8030F216820F4907041E8030272B34C
:101A6000206850E8030F216820F4907041E80302D9
:101A70002AB3206850E8030F216820F4907041E8F1
:101A80000302002ADAD11AE0206850E8050F216825
:101A900020F0010041E80502DAB1206850E8050FA6
:101AA000216820F0010041E8050292B1206850E869
:101AB000050F216820F0010041E805024AB12068C5
:101AC00050E8050F216820F0010041E80502002AD6
:101AD000DAD1206B012824D1206850E8030F216857
:101AE00020F0100041E80302DAB1206850E8030F4B
:101AF000216820F0100041E8030292B1206850E80C
:101B0000030F216820F0100041E803024AB1206869
:101B100050E8030F216820F0100041E80302002A7A
:101B2000DAD1202084F84200002020632068406938
:101B300040063FD5206850E8050F216820F040009E
:101B400041E80502DAB1206850E8050F216820F06D
:101B5000400041E8050292B1206850E8050F216875
:101B600020F0400041E805024AB1206850E8050F26
:101B7000216820F0400041E80502002ADAD1E06B3C
:101B8000C0B142F24D51C0F600010165FEF794FC70
:101B900000283FF459AEE06B016D02B0BDE8B040E3
:101BA000084700BF2046FFF7DDFD0020606402B05B
:101BB000B0BD00BF204602B0BDE8B040FFF7D2BDC7
:101BC000401A216851E8031F226821F4907142E80D
:101BD0000313DBB1216851E8031F226821F49071DF
:101BE00042E8031393B1216851E8031F226821F4EE
:101BF000907142E803134BB1216851E8031F22683A
:101C000021F4907142E80313002BDAD1216851E8E6
:101C1000051F226821F0010142E80513DBB12168AC
:101C200051E8051F226821F0010142E8051393B134
:101C3000216851E8051F226821F0010142E80513DF
:101C40004BB1216851E8051F226821F0010142E8EB
:101C50000513002BDAD1202184F8421000212163E2
:101C6000216851E8031F226821F0100142E80313A4
:101C7000DBB1216851E8031F226821F0100142E81E
:101C8000031393B1216851E8031F226821F010016A
:101C900042E803134BB1216851E8031F226821F089
:101CA000100142E80313002BDAD1022281B2204650
:101CB000626302B0BDE8B040FFF752BD216A31F85F
:101CC000022B6FF35F22426021628AE5002804BF85
:101CD0000120704710B5044690F8410028B9002053
:101CE00084F84000204600F021F8242084F84100C8
:101CF0002068C16821F40051C160204600F082FED6
:101D00002068016921F490410161416921F02A01B3
:101D10004161C16841F40051C1600020202160642C
:101D200084F8411084F84210606310BD2DE9F0473B
:101D300086B00446016841F20040C4F201008142CD
:101D400002D006B0BDE8F087002643F630010196C8
:101D5000C4F202014A6946F2284842F020024A6170
:101D60004A6900F5823002F020020192019A019640
:101D70000A68C4F2020842F040020A60096801F0F1
:101D80004001019101994FF4844101910221CDE973
:101D90000216032104910821059101A9FEF78EFD89
:101DA00040F28405C2F200054FF020674FF4806ACC
:101DB0004FF480792846C5E90087C5E90266C5E980
:101DC00004A6C5E90669C5E90866FEF767FC0028B0
:101DD00018BFFEF725FBE563AC6340F2E40508F1AC
:101DE0007800C2F200054021C5E9000705F10800AE
:101DF00080E842042846C5E90566C5E907966E6293
:101E0000FEF74CFC002818BFFEF70AFB4720002114
:101E10000022A563AC63FEF7AFFE4720FEF798FEF5
:101E200006B0BDE8F087000070B582B0044690F8B7
:101E3000420020280AD113460A4600294FF001002B
:101E400018BF002B06D102B070BD00BF022002B047
:101E500070BD00BF002622202663A262A3856664AF
:101E600084F842002168E06B42F2D56C42F6350EF0
:101E700042F25955C0F6000CC0F6000EC0F600053F
:101E80000431C0E90FCEC0E91356FEF7B9FC019644
:101E9000206801680191406801900198206928B389
:101EA000206850E8030F216840F4807041E8030285
:101EB000E2B1206850E8030F216840F4807041E8E7
:101EC00003029AB1206850E8030F216840F4807043
:101ED00041E8030252B1206850E8030F216840F442
:101EE000807041E80302002ADAD100BF206850E880
:101EF000050F216840F0010041E80502E2B12068C9
:101F000050E8050F216840F0010041E805029AB150
:101F1000206850E8050F216840F0010041E8050203
:101F200052B1206850E8050F216840F0010041E8F7
:101F30000502002ADAD100BF206850E8050F2168A9
:101F400040F0400041E80502DAB1206850E8050F92
:101F5000216840F0400041E8050292B1206850E855
:101F6000050F216840F0400041E805024AB12068B1
:101F700050E8050F216840F0400041E80502002AC2
:101F8000DAD1002002B070BD40F28C11C2F2000123
:101F9000884218BF704780B540F2710140F2D410FA
:101FA000C2F20001C2F2000091F800C0037840F2D2
:101FB000790EC2F2000E40F28C10C2F20000012233
:101FC0000EF803C0BDE88040FFF72EBF7047000049
:101FD000B0B5044690F8410020281CBF0220B0BDD7
:101FE00000294FF001004DD0002A134608BFB0BDB4
:101FF0004FF0000C21202162A384E384C4F844C084
:1020000084F84100A06B42F64D0E42F6FD052268B1
:10201000C0F6000EC0F60005C0E90FE542F25955C2
:10202000C0F600050432C0E9135CFEF7E9FB206846
:102030006FF04001016000BF206850E8050F216883
:1020400040F0800041E80502F2B1206850E8050F39
:10205000216840F0800041E80502AAB1206850E8FC
:10206000050F216840F0800041E8050262B1206858
:1020700050E8050F216840F0800041E80502002A81
:10208000DAD10020B0BD00BF0020B0BD7047000015
:1020900070470000FEE7000080B582B0002001908C
:1020A00043F63000C4F202000168002241F48001CE
:1020B00001600068002100F480000190019839203F
:1020C000FEF75AFD3920FEF743FD4520002100228E
:1020D000FEF752FD452002B0BDE88040FEF738BD56
:1020E000F0B587B0002643F63000CDE905660196CD
:1020F000C4F20200016841F2004441F04001016075
:102100000168C4F2020401F04001019101990196B5
:102110000168002241F00101016001684FF480472D
:1021200001F00101019101990196016841F08001DE
:102130000160016801F08001019101990196016837
:1021400041F002010160016801F002010191019971
:102150000196016841F010010160016801F0100171
:10216000019101990196016841F020010160006828
:102170004FF4804100F02000019001982046FEF7C6
:1021800071FC042002904FF4881002ADCDE90306E3
:10219000A4F580502946FEF791FB0120CDE9030606
:1021A0002046294602970596FEF788FB0820002165
:1021B0000022FEF7E1FC0820FEF7CAFC07B0F0BDE4
:1021C000B0B598B0002540F24410C4F201050021DA
:1021D000C2F2000044F24F6242F20F731191CDE956
:1021E0000F11CDE90D11CDE90B11CDE90911CDE9A3
:1021F0000711CDE90511CDE90311CDE90111C0E9C0
:102200000052C0E90213C0E904118161FFF750FADE
:10221000002818BFFEF704F940F24410C2F2000093
:1022200010A9FFF72BF8002818BFFEF7F9F8602077
:10223000099041F288300A9040F244100024C2F222
:10224000000009A90422CDE90B44CDE90D440F9407
:10225000FFF71CF9002818BFFEF7E2F80594CDE956
:102260000344CDE90144089440F244144FF4005073
:10227000C2F20004069001A92046FEF7D9FF00280B
:1022800018BFFEF7CDF82068A84201D018B0B0BD45
:10229000002043F630011390C4F202010A6842F0B4
:1022A00010020A60096801F01001139113994FF4AC
:1022B000006113910221CDE91410169001201790AE
:1022C00005F5883013A9FEF7F9FA18B0B0BD000083
:1022D00080B540F28C1041F20041C2F20000C4F21D
:1022E00001014FF4E132002380E80E0000F10C01FF
:1022F0004FF4806C4FF00C0E81E80850C0E90633B3
:10230000FFF7E4FC002808BF80BDBDE88040FEF771
:1023100087B80000FEE70000FEE7000070470000FD
:1023200070470000FEF7AABB80B592B0002043F6CC
:1023300040010B90CDE90900CDE907000590CDE9FA
:102340000300CDE901000090C4F202010A6842F0E6
:1023500080520A60096801F080510091009947F2AB
:1023600000010090C4F200010A6842F440420A6091
:102370000968012201F44041009100990221CDE950
:102380000C1008200E90B420CDE90F010420099212
:102390001022119006A806910A92FEF775FD18B159
:1023A00072B600BFFEE700BFFEF722FC10B172B6A6
:1023B000FEE700BF0F200190022002900020039052
:1023C0004FF4A05004904FF48050059001A80521CF
:1023D000FEF74CFC10B172B6FEE700BF12B080BD34
:1023E0004EF68850CEF20000016841F470010160A1
:1023F0007047000040F24410C2F20000FEF79CBF9C
:1024000010B540F6FF3E0368C4F2000E40F2004CE7
:102410007045C4F2010C27DCB0F1804F31D040F29E
:102420000042C4F2000290422BD040F60002C4F2F7
:102430000002904225D041F6FF72C4F200029042A1
:1024400029DC70453CDCB0F1804F5FD040F20042A7
:10245000C4F20002904259D040F60002C4F20002D9
:10246000904253D056E000BF40F60042C4F2000252
:10247000904206D0604504D00022C4F2010290428E
:10248000D9D14A6823F07003134341F6FF72C4F2B6
:1024900000029042D5DD43F6FF72C4F20102904281
:1024A00022DC42F20002C4F2000290422ED000224E
:1024B000C4F20102904229D0604527D02AE000BF33
:1024C00040F60042C4F2000290421FD041F60002E2
:1024D000C4F20002904219D041F60042C4F2000258
:1024E000904213D016E000BF44F20002C4F2010291
:1024F00090420BD044F60002C4F20102904205D093
:1025000044F20042C4F20102904203D1CA6823F4AB
:102510004073134323F080024B69D1F800E08C68CC
:102520001A430260C46240F48062C0F828E0624549
:1025300004BF09690163012141610169C90708BF3D
:1025400010BD016921F00101016110BD806B002106
:10255000C185C184FFF706B9806B01684A6990F8AC
:102560004130212B2DD112F080022AD00021C184CC
:10257000016851E8031F026821F0C00142E803131B
:10258000DBB1016851E8031F026821F0C00142E895
:10259000031393B1016851E8031F026821F0C001E1
:1025A00042E803134BB1016851E8031F026821F0B0
:1025B000C00142E80313002BDAD1202180F841103A
:1025C0000168496990F84220222A40F07D8011F08C
:1025D000400179D00021C185016851E8031F0268DC
:1025E00021F4907142E80313BBB3016851E8031F63
:1025F000026821F4907142E8031373B3016851E853
:10260000031F026821F4907142E803132BB30168A1
:1026100051E8031F026821F4907142E80313002B74
:10262000DAD11AE0016851E8051F026821F00101C2
:1026300042E80513DBB1016851E8051F026821F08B
:10264000010142E8051393B1016851E8051F0268D2
:1026500021F0010142E805134BB1016851E8051F63
:10266000026821F0010142E80513002BDAD1016B69
:10267000012924D1016851E8031F026821F01001EB
:1026800042E80313DBB1016851E8031F026821F03F
:10269000100142E8031393B1016851E8031F026877
:1026A00021F0100142E803134BB1016851E8031F08
:1026B000026821F0100142E80313002BDAD1202137
:1026C00080F8421000210163416C41F01001416427
:1026D000FFF748B80168806B0968C90500F19F8061
:1026E0000021C185016851E8031F026821F480714F
:1026F00042E80313E3B1016851E8031F026821F4C3
:10270000807142E803139BB1016851E8031F02681E
:1027100021F4807142E8031353B1016851E8031FAB
:10272000026821F4807142E80313002BDAD100BF64
:10273000016851E8051F026821F0010142E8051314
:10274000BBB3016851E8051F026821F0010142E8AE
:10275000051373B3016851E8051F026821F00101F8
:1027600042E805132BB3016851E8051F026821F008
:10277000010142E80513002BDAD11AE0016851E8A3
:10278000051F026821F0400142E80513DBB1016832
:1027900051E8051F026821F0400142E8051393B19A
:1027A000016851E8051F026821F0400142E8051365
:1027B0004BB1016851E8051F026821F0400142E871
:1027C0000513002BDAD1202180F84210016B01297A
:1027D00025D100BF016851E8031F026821F01001F4
:1027E00042E80313DBB1016851E8031F026821F0DE
:1027F000100142E8031393B1016851E8031F026816
:1028000021F0100142E803134BB1016851E8031FA6
:10281000026821F0100142E80313002BDAD10021F5
:102820004163016B012918BFFFF7AEBB818DFEF735
:1028300097BF0000806B01214163016B012918BF24
:10284000FFF7C4BB818D4908FEF78ABF0168806B22
:102850000968C90548BFFFF719BC0021C18400BF42
:10286000016851E8051F026821F0800142E8051364
:1028700083B3016851E8051F026821F0800142E836
:1028800005133BB3016851E8051F026821F0800180
:1028900042E80513F3B1016851E8051F026821F011
:1028A000800142E80513002BDAD113E0016851E8FA
:1028B000031F026841F0400142E80313002B08BFE8
:1028C0007047016851E8031F026841F0400142E887
:1028D000031393B1016851E8031F026841F04001FE
:1028E00042E803134BB1016851E8031F026841F04D
:1028F000400142E80313002BD8D17047806BFFF7EB
:10290000C7BB000081B090F84210222921D1836812
:102910000246B3F5805F09D152F8281F52F8183CDF
:10292000002B63D003685B680AE000BF52F8281FE1
:1029300013B90369002BF5D003685B6803F07F03CC
:102940000B70116801311160C18D01390A04C18514
:1029500002D001B0704700BF0168CA6822F02002AF
:10296000CA60CA6822F48072CA604A6922F0010211
:102970004A61202180F8421000214163026B012A44
:102980003CD10163016851E8031F026821F0100186
:1029900042E80313DBB1016851E8031F026821F02C
:1029A000100142E8031393B1016851E8031F026864
:1029B00021F0100142E803134BB1016851E8031FF5
:1029C000026821F0100142E80313002BDAD10168FC
:1029D0000A68D20606D5002200920A680092496869
:1029E00000910099818D01B0FEF7BABE026852686D
:1029F0006FF35F2221F8022B8162A5E701B0FFF798
:102A0000C3BA000010B504460068D4E902C22369C5
:102A1000016921F4405111430161626943EA0C01EB
:102A2000E3691143C268194349F20C639A431143A5
:102A3000C1604169A26921F4407141F20043114330
:102A400040F48062C4F201039A42416102D1FEF770
:102A5000D1F901E0FEF7BAF9E16963681922B1F52D
:102A6000004FA0FB020123D15A00DB0FFDF70EFC43
:102A700048F21F51C5F2EB11A0FB01235A094FF692
:102A80009C73C0F6FF7303F1805302FB03003223F3
:102A900003EBC000A0FB01014FF4F87000EA111035
:102AA00000EB0210C1F3421108442168886010BD98
:102AB0009A009B0FFDF7EAFB48F21F51C5F2EB119C
:102AC000A0FB01235A094FF69C73C0F6FF7302FB6B
:102AD0000300322303EB0010A0FB0101F02000EA09
:102AE000511000EB0210C1F34311084421688860C3
:102AF00010BD000040F28C10C2F20000FEF734BEA0
:102B0000FEE70000FDF7C8FFFFF70EFCFFF7E8FA4D
:102B1000FFF7C2FAFFF754FBFFF7DAFB40F270054C
:102B2000C2F2000540F28C10691CC2F200000122C2
:102B3000FFF77AF9687A0A2802D100BFFEE700BFE2
:102B400040F28C1405F10906C2F200040A284FF085
:102B50000A00FBD02878012231182046FFF738FA06
:102B6000687AF3E7F1EE100A4FF6FF71C0F2C03158
:102B700020EA010040F04070E1EE100A70470000CA
:102B8000000000000000010203040607080900001D
:102B900000000102030400061016000610160000D3
:102BA000C02B00080000002010000000E801000811
:102BB000D02B000810000020D007000004020008FD
:102BC00001000000100000000024F40000000000DC
:04000005080001AD41
:00000001FF
