:020000040800F2
:10000000600700204D020008BD1F0008F11C000819
:10001000B91F0008F90300080524000800000000CB
:10002000000000000000000000000000C51F0008E4
:10003000FD03000800000000C11F0008C91F0008E0
:1000400067020008670200086702000867020008EC
:1000500067020008670200086702000867020008DC
:100060000104000867020008670200086702000830
:1000700067020008670200086702000867020008BC
:1000800067020008670200086702000867020008AC
:10009000670200086702000867020008670200089C
:1000A000670200089920000867020008670200083C
:1000B000670200086702000867020008670200087C
:1000C000670200086702000867020008670200086C
:1000D000670200086702000867020008670200085C
:1000E000670200086702000867020008670200084C
:1000F000670200086702000867020008670200083C
:10010000670200086702000867020008670200082B
:100110006702000867020008A520000867020008BF
:10012000670200086702000867020008670200080B
:1001300067020008670200086702000867020008FB
:1001400067020008670200086702000867020008EB
:10015000670200086702000867020008F923000828
:1001600067020008670200086702000867020008CB
:10017000670200086702000867020008000000002C
:1001800067020008670200086702000867020008AB
:10019000670200086702000867020008670200089B
:1001A00000000000000000006702000800F002F8F4
:1001B00000F03CF80AA090E8000C82448344AAF1C5
:1001C0000107DA4501D100F031F8AFF2090EBAE8C3
:1001D0000F0013F0010F18BFFB1A43F0010318477B
:1001E000BC220000DC220000103A24BF78C878C18D
:1001F000FAD8520724BF30C830C144BF04680C602D
:10020000704700000023002400250026103A28BF74
:1002100078C1FBD8520728BF30C148BF0B60704778
:100220001FB502F021F91FBD10B510BD00F0A9F8EF
:100230001146FFF7F5FF02F0E7F800F0C7F803B446
:10024000FFF7F2FF03BC00F0CFF800000948804739
:1002500009480047FEE7FEE7FEE7FEE7FEE7FEE7A8
:10026000FEE7FEE7FEE7FEE704480549054A064BC0
:100270007047000085200008AD01000860010020E3
:1002800060070020600300206003002053EA020C96
:1002900000F069802DE9F04B4FF00006002B1FBFE6
:1002A000B3FA83F503FA05F424FA05F65E4012BFAB
:1002B0001643B2FA82F502FA05F4C5F120051EBF15
:1002C00022FA05FC44EA0C04203556EA044C4FEAB5
:1002D000144418BF641C4FF000084FF0000990420E
:1002E00071EB030C39D3002919BFB1FA81F701FA78
:1002F00007F6B0FA80F700FA07F6C7F120071EBF2D
:1003000020FA07FC46EA0C062037B6FBF4FCA7EB04
:100310000507103F07F01F0BCBF120062CFA06F65D
:100320000CFA0BFB44BFB3460026202FA4BF5E4649
:100330004FF0000B5BEA060C08BF4FF0010B19EB06
:100340000B0948EB0608ABFB027C06FB02CC0BFB5F
:1003500003CCC01B71EB0C01C1E70B4602464146C2
:100360004846BDE8F08B13B5084318BF4FF0FF3087
:100370000146AFF30080BDE81C40704770477047EE
:100380007047754600F02CF8AE46050069465346A6
:1003900020F00700854618B020B5FFF765FFBDE8DF
:1003A00020404FF000064FF000074FF000084FF0DC
:1003B000000BAC46ACE8C009ACE8C009ACE8C00929
:1003C000ACE8C00921F007018D46704710B504461E
:1003D000AFF300802046BDE81040FFF730BF0000BB
:1003E000004870471000002001491820ABBEFEE70E
:1003F0002600020070470000FEE700007047000082
:10040000042000F061B8000072B600BFFEE70000F3
:1004100070B5866D044600F03DF994F83510022958
:1004200028D105462068216C026822F0160202607D
:10043000426922F08002426109B9A16C19B10168D8
:1004400021F008010160016821F00101016000BF95
:1004500020680068C00715D000F01CF9401B062872
:10046000F6D320206065032084F83500002184F84D
:10047000341070BD802060650120002184F83410A4
:1004800070BD00BFE06D3F2101FA00F0B0600120B7
:1004900084F835000020002184F8341070BD00007D
:1004A00090F83510022909D1052180F8351000682F
:1004B000016821F001010160002070478021416541
:1004C000012070477047000043F61441C4F2010157
:1004D0000A68024214BF08607047FFF7F3BF0000CC
:1004E0002DE9F04F82B000F13E4242F2004502F1A8
:1004F000FF77C4F202050A2243F6004E4FEAB72600
:10050000A84208BF0922C4F2010E092E38BF4FEAE3
:10051000B7220125002600274FF00008009208E0CE
:1005200008F101080437B8F1100F06F1020600F0D7
:10053000A7800C6805FA08F914EA090FF0D0D1F881
:1005400004B003220BF0030CACF10104B240012C07
:100550006FEA020A10D88268CC6802EA0A02B44044
:10056000224382604268CBF3001422EA090204FAB3
:1005700008F42243426005E0BCF1030F02D14FF0C2
:10058000030C20E0C2688C6802EA0A02B4402243ED
:10059000BCF1020FC26016D16FF0030202EA5802EA
:1005A0000244D2F820C007F01C050F230C69AB40B1
:1005B0002CEA030304FA05F52B431362D1F804B0C7
:1005C00001250BF0030C02680CFA06F302EA0A029A
:1005D0001A431BF4403F0260A2D0002243F64403BA
:1005E0000192C4F202031A684FF6084C42F48042AA
:1005F0001A601A68CFF6FF7C02F480420192019AD9
:1006000028F00302724452F80C3007F00C050F2456
:10061000AC40A343009C04FA05F52B4342F80C3090
:10062000DEF808204B6842EA090543F60C4CDC0270
:1006300058BF22EA0905CEF80850C4F2010CDCF8D4
:1006400000209C0242EA090558BF22EA0905CCF8BD
:100650000050DEF804209C0342EA090558BF22EA54
:100660000905CEF80450DEF80020DB0342EA090554
:1006700058BF22EA0905CEF80050012550E700BF17
:1006800002B0BDE8F08F0000002A08BF09048161B4
:100690007047000040F25C10C2F200000068704732
:1006A00040F2000040F25C11C2F20000C2F2000110
:1006B00000780A68104408607047000080B543F66F
:1006C0000040C4F20200016841F400710160016859
:1006D00041F480610160016841F480710160032090
:1006E00000F088F80F2000F005F800F027F800204F
:1006F00080BD000070B540F20006C2F2000640F274
:1007000008013278C2F200014FF47A730968B3FB32
:10071000F2F20446B1FBF2F1084600F081FB0F2C27
:100720004FF0010508D838B94FF0FF3021460022BC
:10073000002500F033F87460284670BD82B00020B8
:1007400043F640010190C4F202014A6842F480423B
:100750004A604A6802F480420192019A0090086857
:1007600040F080500860086800F0805000900098C9
:1007700002B07047002848BF7047C1B200F01F00A8
:10078000012202FA00F04EF20012CEF2000242EA1A
:10079000D10121F0030108607047000010B54EF64A
:1007A0000C5CCEF2000CDCF80030C3F3022E8EF0AD
:1007B0000704042C28BF0424BEF103034FF0FF3EBE
:1007C0000EFA04F438BF0023A14399400EFA03F354
:1007D0009A43114300F00F0200F160430901043A0B
:1007E00003F564436244002848BF02F10C0319700A
:1007F00010BD00004EF60C51CEF200010A684FF613
:10080000FF031A4060F30A2242F0806040F0FD705E
:100810000860704770B582B00020019043F6400038
:10082000C4F202000168402641F080510160006876
:10083000C4F20E2600F080500190019847F20405A2
:100840000120C4F200053060FFF724FF044600BF1A
:100850002868C00306D4FFF71DFF001BB0F57A7FA0
:10086000F6D90EE001207060FFF714FF044600BFC8
:100870002868800308D4FFF70DFF001BB0F57A7FCE
:10088000F6D9032002B070BD002002B070BD000098
:100890002DE9F041002800F08B8043F60808C4F2EF
:1008A00002080446D8F8F8030D4600F00F0088420D
:1008B00007D288F8F853D8F8F80300F00F00A842E0
:1008C00076D12068810717D5410705D5D8F80010E3
:1008D00041F4E051C8F80010010705D5D8F8001020
:1008E00041F46041C8F80010D8F80010A26821F067
:1008F000F0011143C8F80010C0073FD1D8F8F80341
:1009000000F00F00A84207D988F8F853D8F8F80388
:1009100000F00F00A8424BD12068410707D5D8F856
:100920000010E26821F4E0511143C8F800100007FC
:1009300008D5D8F80000216920F4604040EAC100E1
:10094000C8F8000000F07CF8D8F8001042F28242AB
:10095000C1F30311C0F60002515C40F2080220FA14
:1009600001F140F20400C2F200000068C2F200028D
:100970001160FFF7BFFE0020BDE8F0816068811EB6
:10098000022907D258F8081C89015CBF0120BDE884
:10099000F08111E0012807D158F8081C89035CBFD9
:1009A0000120BDE8F08107E058F8081C890703D44E
:1009B0000120BDE8F08100BFD8F8001021F003014C
:1009C0000843C8F80000FFF765FE064641F2883785
:1009D000D8F80000616800F00C00B0EB810F8DD0FA
:1009E000FFF758FE801BB842F2D90320BDE8F08122
:1009F00040F2080043F60801C2F20000C4F202010E
:100A00000068096842F29242C1F38221C0F60002F6
:100A1000515CC8407047000040F2080043F60801EE
:100A2000C2F20000C4F202010068096842F2924278
:100A3000C1F34231C0F60002515CC840704700006B
:100A400010B543F60404C4F20204606800F00C0020
:100A500008280BD0042819BF42F20040C0F2F4006D
:100A600041F60030C0F2B70010BD00BF2068216819
:100A70002368490241F60031C0F2B70100F03F029D
:100A8000C3F388105CBF42F20041C0F2F401A1FB45
:100A900000010023FFF7FAFB21680222C1F30141A4
:100AA00002EB4101B0FBF1F010BD00002DE9F04177
:100AB00082B0002868D00446007843F60006C007DC
:100AC000C4F202060BD0B06800F00C00042840F01D
:100AD0009F803068800302D56068002854D0207859
:100AE00080071AD5B06810F00C0F09D0B06800F07C
:100AF0000C00082840F0A6807068400200F1A28037
:100B00003068800702D5E06801283DD1306821694E
:100B100020F0F80040EAC10030602078000737D4A8
:100B2000207840074CD4A56955B3B06800F00C009C
:100B3000082840F0BB80012D26D07068E16900F4E0
:100B400080028A4220D1216A00F03F028A421BD1F2
:100B500047F6C071626A0140B1EB821F14D1A16AED
:100B60004FF6FF73C903994300F44032A1F5803179
:100B70008A4209D1E16A00F07060B0EB016F03D1E5
:100B8000002002B0BDE8F081012002B0BDE8F08194
:100B90006069002840F20000C4F2472076D00121AD
:100BA000C0F8801EFFF776FD054600BF706F800716
:100BB000B6D4FFF76FFD401B0228F7D9DDE000BF78
:100BC000306C10F080580AD100200190306C40F059
:100BD00080503064306C00F080500190019847F2F2
:100BE0000007C4F200073868C00541D4386840F4F3
:100BF00080703860FFF74EFD054600BF3868C005BD
:100C000036D4FFF747FD401B0228F7D9B5E000BFF7
:100C1000B06800F00C00082803D1706840023FF56E
:100C200058AF6068B0F5803F07D0B0F5A02F40F016
:100C30008D80306840F480203060306840F480302F
:100C400030608DE0E068002852D00020C4F24720D8
:100C500001210160FFF71EFD054600BF30688007D7
:100C60003FF554AFFFF716FD401B0228F6D984E08C
:100C7000A068012805D005284ED1306F40F004004F
:100C80003067306F40F0010030674FE00021C0F85E
:100C9000801EFFF7FFFC0546706F80077FF540AFB1
:100CA000FFF7F8FC401B0228F6D966E00027C4F2E3
:100CB000472700203866FFF7EDFC022D05460BD1D3
:100CC000306880015ED5FFF7E5FC401B02284FF03D
:100CD0000300F5D955E700BF306880017FF550AFBC
:100CE000FFF7D8FC401B02284FF00300F4D948E777
:100CF0000020C4F2472000210160FFF7CBFC05462D
:100D0000306880077FF509AFFFF7C4FC401B02285D
:100D10004FF00300F4D934E7316F002821F00101CE
:100D20003167316F21F0040131674DD0FFF7B2FC1C
:100D3000054641F2883700BF306F800756D4FFF771
:100D4000A9FC401BB842F7D917E000BF3168002862
:100D500021F480313160316821F4802131604FD03D
:100D6000FFF798FC054600BF306880033FF5B7AE3B
:100D7000FFF790FC401B6428F6D9032002B0BDE8C1
:100D8000F08100BF04F11C052FCD084340EA82101A
:100D9000D9034FF6FF729143A1F5803140EA056017
:100DA0000843706001203866FFF774FC044600BFFA
:100DB000306880013FF5E4AEFFF76CFC001B0228B1
:100DC0004FF00300F4D9DCE6FFF764FC054641F27E
:100DD000883700BF306F800708D5FFF75BFC401BEA
:100DE000B8424FF00300F5D9CBE600BFB8F1000FD1
:100DF0007FF499AE306C20F08050306493E600BFF1
:100E0000FFF748FC054600BF306880037FF567AEFA
:100E1000FFF740FC401B64284FF00300F4D9B0E614
:100E2000411E0020B0EB116F1CBF012070474EF235
:100E30001002CEF2000251604EF62351CEF20001B4
:100E4000F0230B700721906011607047704700001D
:100E500070470000B0B590F83C20012A04BF022082
:100E6000B0BD01F108053CCDD1E900CE23F47C539F
:100E700022F470521A432EF4F0431A432CF4E04348
:100E80001A4324F4C0431A432A43C96922F4804216
:100E9000036811435964002180F83C100846B0BD36
:100EA00010B590F83C20012A4FF0020251D080F892
:100EB0003D200268D2F804E0D2F808C00C682EF099
:100EC0007003234341F2FF74C4F20004A242536052
:100ED0000EDC40F2FF73C4F200039A4216DCB2F15A
:100EE000804F2BD040F20043C4F2000324E000BF47
:100EF00040F2FF33C4F201039A4213DC41F60003CF
:100F0000C4F200039A4219D0002313E040F6000314
:100F1000C4F200039A4211D040F60043C4F2000329
:100F20000AE000BF44F20003C4F201039A4205D074
:100F300040F20043C4F201039A4204D149682CF004
:100F40008003194391600121002280F83D1080F850
:100F50003C20104610BD0000002804BF012070474F
:100F600010B5044690F83D0028B9002084F83C00F4
:100F7000204600F01FF8022084F83D002068211D63
:100F800001F096F8012084F8460084F83E0084F8C9
:100F90003F0084F8400084F8410084F8420084F85F
:100FA000430084F8440084F8450084F83D000020A4
:100FB00010BD000010B582B0006841F20001C4F21B
:100FC0000001884216D00021C4F2010188422DD1CF
:100FD0000020019043F64000C4F202004168192449
:100FE00041F001014160406800F00100019001986A
:100FF00010E000BF0020009043F64000C4F2020061
:101000000168362441F010010160006800F0100012
:1010100000900098204600210022FFF7BFFB2046E9
:1010200002B0BDE81040FFF7A5BB00BF02B010BD85
:1010300080B590F83C20012A4FF0020200F0C280F7
:1010400080F83D20D0F800C04FF67772DCF8083009
:1010500023EA0202CCF808200B684F2B28DC1F2B58
:1010600044DD202B45D0302B43D0402B40F0AC80CA
:10107000D1F804E0C968DCF82030DCF8202022F048
:101080000102CCF82020DCF8182022F0F00242EA1D
:10109000011123F00A0242EA0E02CCF81810CCF833
:1010A0002020DCF8081041F0470121F0300180E0F9
:1010B0006F2B27DDB3F5005F48D0B3F5805F7AD0A2
:1010C000702B40F08180D1E901E3C968DCF8082089
:1010D00043EA0E0322F47F4243EA01211143CCF894
:1010E0000810DCF8081041F0770162E00BB1102B1A
:1010F0006AD1DCF8081021F07001194341F00701B2
:1011000057E000BF502B35D0602B5DD1D1F804E003
:10111000C968DCF82030DCF8202022F01002CCF87E
:101120002020DCF8182022F4704242EA013123F03A
:10113000A00242EA0E12CCF81810CCF82020DCF8FD
:10114000081041F0670121F0100132E0D1E901E31C
:10115000C968DCF8082043EA0E0322F47F4243EA20
:1011600001211143CCF80810DCF8081041F480414B
:101170001FE000BFD1F804E0C968DCF82030DCF8DB
:10118000202022F00102CCF82020DCF8182022F0E8
:10119000F00242EA011123F00A0242EA0E02CCF800
:1011A0001810CCF82020DCF8081041F0570121F08D
:1011B0002001CCF808100022012180F83D10002108
:1011C00080F83C10104680BD0122F5E77047000012
:1011D00070B504460068C5680669B10716D515F0F4
:1011E000020113D06FF002010161012121778069B2
:1011F000800703D02046FFF7E9FF05E0204600F016
:101200008FF8204600F0D0F900202077700719D51C
:1012100015F0040016D020686FF00401016102216E
:101220002177806910F4407F04D02046FFF7CEFF7D
:1012300006E000BF204600F073F8204600F0B4F945
:1012400000202077300717D515F0080014D020684B
:101250006FF00801016104212177C069800703D084
:101260002046FFF7B3FF05E0204600F059F820467E
:1012700000F09AF900202077F00619D515F010003B
:1012800016D020686FF01001016108212177C06934
:1012900010F4407F04D02046FFF798FF06E000BF1F
:1012A000204600F03DF8204600F07EF9002020772F
:1012B000F00718BF15F0010002D1300609D412E082
:1012C00020686FF001010161204600F06FF93006DF
:1012D00009D515F0800006D020686FF0800101610B
:1012E0002046FFF7B3FD700609D515F0400006D083
:1012F00020686FF040010161204600F059F9B00606
:1013000058BF70BD15F0200008D021686FF0200292
:1013100020460A61BDE87040FFF79ABD70BD00002D
:10132000704700002DE9F04390F83C30012B04BFDA
:101330000220BDE8F0834FEAB202032A00F2FC80EB
:10134000DFE802F0023E7EBE036840F200471C6AFE
:101350001A6A24F0020422F001021A621A46D3F833
:1013600004E052F818CF8E6843F48065C4F2010798
:10137000BD4244EA060405D1CE6824F00C0426F0F0
:10138000040634430E68BD4207D1D1E905572EF457
:10139000407E45EA0E0545EA070E2CF073073743F9
:1013A000C3F804E09F614F6809695F631C629F692D
:1013B00047F008079F619F6927F004079F61B1E02C
:1013C000036840F200481C6A1A6A24F0200422F0E4
:1013D00010021A621A46D3F804C052F818EF8F6848
:1013E00043F48065C4F20108454544EA071407D177
:1013F000CF686FF0400624F0C00406EA07163443B5
:10140000D1F80090454506D1D1E905562CF4406746
:101410002E4347EA860C2EF4E64747EA0927C3F82D
:1014200004C09F614F6809699F631C629F6947F40C
:1014300000679F619F6927F480679F6171E000BF2B
:10144000036840F200481C6A1A6A24F4007422F40B
:1014500080721A621A46D3F804C052F81CEF8F68E3
:1014600043F48065C4F20108454544EA072408D1E5
:10147000CF6840F2FF463F0224F4406427EA0606A4
:101480003443D1F80090454506D1D1E905562CF4F6
:1014900040572E4347EA061C2EF0730747EA090718
:1014A000C3F804C0DF614F680969DF631C62DF694C
:1014B00047F00807DF61DF6927F00407DF6131E0EB
:1014C000036840F20045D3F820C01A6A43F48067ED
:1014D00022F480521A621A465C6852F81CEFD1F866
:1014E00000808E68C4F20105AF4204D14D6924F436
:1014F000804444EA85142CF4005747EA06372EF45A
:10150000E64646EA08265C60DE614E6809691E64AC
:101510001F62DF6947F40067DF61DF6927F48067D6
:10152000DF6109021368194311600021002280F86D
:101530003C200846BDE8F0830121002280F83C20D1
:101540000846BDE8F0830000002804BF0120704772
:1015500010B5044690F83D0028B9002084F83C00FE
:10156000204600F01FF8022084F83D002068211D6D
:1015700000F09EFD012084F8460084F83E0084F8C7
:101580003F0084F8400084F8410084F8420084F869
:10159000430084F8440084F8450084F83D000020AE
:1015A00010BD000070470000704700007047000049
:1015B000704700007047000070470000B0B582B06F
:1015C000044600680168C368426901F02F05202DB8
:1015D00003F0200506D12DB1204602B0BDE8B04091
:1015E00000F012BE5FEA017C1EBF02F0010E03F4A0
:1015F000907212EB0E0253D1226B012A05D111F029
:10160000100218BF13F0100236D10A0622D513F0CB
:1016100080021FD094F8411021293FD1A168B1F573
:10162000805F03D12169002900F07282216A4A1C7F
:10163000226209784160E18C01390A04E1842DD1EC
:10164000C16821F08001C160C16841F04001C16002
:1016500002B0B0BD490621D513F040011ED0C168CB
:1016600021F04001C1602021204684F8411002B0E1
:10167000BDE8B04000F034BB002101910168019148
:101680004168019101994069400613D4A08DE18D14
:10169000E28D002A18BF884240F0BC8102B0B0BD84
:1016A000CA0718BF13F4807240F0B8804A0700F1EF
:1016B000BB80C0E0E06B016849688AB2002AEDD0C7
:1016C000A38D9A42EAD2E185C069B0F5807F00F02F
:1016D0009C80206850E8030F216820F4807041E866
:1016E0000302DAB1206850E8030F216820F480700B
:1016F00041E8030292B1206850E8030F216820F40A
:10170000807041E803024AB1206850E8030F216865
:1017100020F4807041E80302002ADAD1206850E802
:10172000050F216820F0010041E80502DAB12068C8
:1017300050E8050F216820F0010041E8050292B150
:10174000206850E8050F216820F0010041E80502FB
:101750004AB1206850E8050F216820F0010041E8F7
:101760000502002ADAD1206850E8050F216820F030
:10177000400041E80502DAB1206850E8050F216811
:1017800020F0400041E8050292B1206850E8050FC2
:10179000216820F0400041E805024AB1206850E885
:1017A000050F216820F0400041E80502002ADAD147
:1017B000202084F8420000202063206850E8030FB6
:1017C000216820F0100041E80302DAB1206850E8F7
:1017D000030F216820F0100041E8030292B1206855
:1017E00050E8030F216820F0100041E803024AB1DD
:1017F000206850E8030F216820F0100041E8030240
:10180000002ADAD1E06BFEF703FE02206063A08DB0
:10181000E18D401A81B2204675E100BF626C42F052
:10182000010262644A0706D5BEF1000F03D0626C64
:1018300042F0020262648A0706D5BEF1000F03D0AF
:10184000626C42F004026264BCF1000F09D545EA03
:101850000E02B2FA82F2520903D1626C42F008021F
:101860006264626C002A3FF419AF11F0200118BFC6
:10187000002D03D0204600F0C7FC20684069616C51
:1018800000F0400001F00801401800F0B58000BFF2
:10189000206850E8030F216820F4907041E80302AB
:1018A000BAB3206850E8030F216820F4907041E833
:1018B000030272B3206850E8030F216820F490708F
:1018C00041E803022AB3206850E8030F216820F49E
:1018D000907041E80302002ADAD11AE0206850E84B
:1018E000050F216820F0010041E80502DAB1206807
:1018F00050E8050F216820F0010041E8050292B18F
:10190000206850E8050F216820F0010041E8050239
:101910004AB1206850E8050F216820F0010041E835
:101920000502002ADAD1206B012824D1206850E872
:10193000030F216820F0100041E80302DAB12068AB
:1019400050E8030F216820F0100041E8030292B133
:10195000206850E8030F216820F0100041E80302DE
:101960004AB1206850E8030F216820F0100041E8D8
:101970000302002ADAD1202084F8420000202063EC
:101980002068406940063FD5206850E8050F21686F
:1019900020F0400041E80502DAB1206850E8050F68
:1019A000216820F0400041E8050292B1206850E82B
:1019B000050F216820F0400041E805024AB1206887
:1019C00050E8050F216820F0400041E80502002A98
:1019D000DAD1E06BC0B142F2FD11C0F60001016541
:1019E000FEF75EFD00283FF459AEE06B016D02B0DA
:1019F000BDE8B040084700BF2046FFF7DDFD0020EE
:101A0000606402B0B0BD00BF204602B0BDE8B04087
:101A1000FFF7D2BD401A216851E8031F226821F464
:101A2000907142E80313DBB1216851E8031F22687B
:101A300021F4907142E8031393B1216851E8031F28
:101A4000226821F4907142E803134BB1216851E8F8
:101A5000031F226821F4907142E80313002BDAD1AE
:101A6000216851E8051F226821F0010142E80513B1
:101A7000DBB1216851E8051F226821F0010142E82D
:101A8000051393B1216851E8051F226821F0010177
:101A900042E805134BB1216851E8051F226821F087
:101AA000010142E80513002BDAD1202184F842100D
:101AB00000212163216851E8031F226821F01001F1
:101AC00042E80313DBB1216851E8031F226821F0CB
:101AD000100142E8031393B1216851E8031F226803
:101AE00021F0100142E803134BB1216851E8031FB4
:101AF000226821F0100142E80313002BDAD1022200
:101B000081B22046626302B0BDE8B040FFF752BD2B
:101B1000216A31F8022B6FF35F22426021628AE56D
:101B2000002804BF0120704710B5044690F841001A
:101B300028B9002084F84000204600F021F8242035
:101B400084F841002068C16821F40051C16020463A
:101B500000F0DAFB2068016921F4904101614169DC
:101B600021F02A014161C16841F40051C1600020A7
:101B70002021606484F8411084F84210606310BD35
:101B800080B586B0016841F20040C4F20100814294
:101B900002D006B080BD00BF002143F630020191A3
:101BA000C4F20202536900F5823043F0200353610E
:101BB000536903F020030193019B0191136843F0E3
:101BC00040031360126802F040020192019A4FF440
:101BD000844201920222CDE90221032104910821CD
:101BE000059101A9FEF77CFC472000210022FEF7A9
:101BF000D5FD4720FEF7BEFD06B080BD90F842300F
:101C0000202B1CBF0220704700294FF0010318BF92
:101C1000002A01D118467047002303638162222104
:101C20008285C285436480F842100169006819B159
:101C3000C16841F48071C1604169002341F0010134
:101C40004161C16841F02001C16018467047000041
:101C500040F21411C2F20001884218BF704740F2EE
:101C6000730140F2720CC2F20001C2F2000C08785B
:101C70009CF8002040F27B03C2F20003985442F229
:101C80009A429CF80000C0F6000212780130B0FBC6
:101C9000F2F303FB120340F21410C2F2000001221F
:101CA0008CF80030FFF7AABF034690F841002028C7
:101CB0001CBF0220704700294FF0010018BF002A06
:101CC00000D170471962002021219A84DA84586477
:101CD00083F841101968CA6842F08002CA607047F0
:101CE00040F27000C2F20000002101707047000055
:101CF000FEE70000F0B587B0002643F63000CDE9DE
:101D000005660196C4F20200016841F2004441F008
:101D1000400101600168C4F2020401F04001019138
:101D2000019901960168002241F0010101600168FA
:101D30004FF4804701F0010101910199019601687A
:101D400041F080010160016801F080010191019979
:101D50000196016841F002010160016801F0020191
:101D6000019101990196016841F01001016001683B
:101D700001F01001019101990196016841F02001E3
:101D8000016000684FF4804100F02000019001984C
:101D90002046FEF779FC042002904FF4881002AD33
:101DA000CDE90306A4F580502946FEF799FB0120F2
:101DB000CDE903062046294602970596FEF790FBDB
:101DC000082000210022FEF7E9FC0820FEF7D2FCE3
:101DD00007B0F0BDB0B59CB0002540F28400C4F25D
:101DE00001050021C2F2000044F24F6242F20F737B
:101DF0001691CDE914111191CDE90F11CDE90D1115
:101E0000CDE90B11CDE90911CDE90711CDE9051196
:101E1000CDE90311CDE90111C0E90052C0E9021377
:101E2000C0E904118161FFF797F8002818BFFEF799
:101E3000EBFA4FF48050139040F28400C2F200009D
:101E400013A9FFF7F5F8002818BFFEF7DDFA40F2F6
:101E50008400C2F20000FFF777FB002818BFFEF7EE
:101E6000D3FA40F284000024C2F2000010A9CDE9A8
:101E70001044FFF715F8002818BFFEF7C5FA6020D8
:101E8000099041F28830CDE90A0440F28400C2F2A0
:101E9000000009A90422CDE90C44CDE90E44FFF766
:101EA00041FA002818BFFEF7AFFA40F28404002080
:101EB0004FF40051C2F200040590CDE90300CDE9D2
:101EC00001000691089001A92046FEF7C3FF0028F3
:101ED00018BFFEF799FA2068A84201D01CB0B0BD27
:101EE000002043F630011790C4F202010A6842F064
:101EF00010020A60096801F01001179117994FF458
:101F0000006117910221CDE918101A9001201B9051
:101F100005F5883017A9FEF7E3FA1CB0B0BD000044
:101F200080B582B040F2CC0041F200020021C2F242
:101F30000000C4F2000244F24F6342F20F7CCDE98C
:101F40000011C0E90023C0E9021C8161FFF704F819
:101F5000002818BFFEF758FA40F2CC00C2F2000089
:101F60006946FEF79DFF002818BFFEF74DFA02B044
:101F700080BD000080B540F2141041F20041C2F271
:101F80000000C4F201014FF4E132002380E80E00AA
:101F900000F10C014FF4806C4FF00C0E81E80850FA
:101FA000C0E90633FFF7BCFD002808BF80BDBDE8CF
:101FB0008040FEF729BA0000FEE70000FEE70000BF
:101FC0007047000070470000FEF76ABB80B592B012
:101FD000002043F640010B90CDE90900CDE9070050
:101FE0000590CDE90300CDE901000090C4F20201A3
:101FF0000A6842F080520A60096801F0805100913D
:10200000009947F200010090C4F200010A6842F40E
:1020100040420A600968012201F4404100910099A0
:102020000221CDE90C1008200E90B420CDE90F015B
:10203000042009921022119006A806910A92FEF738
:1020400035FD18B172B600BFFEE700BFFEF7E2FB38
:1020500010B172B6FEE700BF0F200190022002907F
:10206000002003904FF4A05004904FF4805005904E
:1020700001A80521FEF70CFC10B172B6FEE700BF07
:1020800012B080BD4EF68850CEF20000016841F4D7
:10209000700101607047000040F28400C2F200004D
:1020A000FFF796B840F2CC00C2F20000FFF790B8FC
:1020B00010B540F6FF3E0368C4F2000E40F2004C3B
:1020C0007045C4F2010C27DCB0F1804F31D040F2F2
:1020D0000042C4F2000290422BD040F60002C4F24B
:1020E0000002904225D041F6FF72C4F200029042F5
:1020F00029DC70453CDCB0F1804F5FD040F20042FB
:10210000C4F20002904259D040F60002C4F200022C
:10211000904253D056E000BF40F60042C4F20002A5
:10212000904206D0604504D00022C4F201029042E1
:10213000D9D14A6823F07003134341F6FF72C4F209
:1021400000029042D5DD43F6FF72C4F201029042D4
:1021500022DC42F20002C4F2000290422ED00022A1
:10216000C4F20102904229D0604527D02AE000BF86
:1021700040F60042C4F2000290421FD041F6000235
:10218000C4F20002904219D041F60042C4F20002AB
:10219000904213D016E000BF44F20002C4F20102E4
:1021A00090420BD044F60002C4F20102904205D0E6
:1021B00044F20042C4F20102904203D1CA6823F4FF
:1021C0004073134323F080024B69D1F800E08C6820
:1021D0001A430260C46240F48062C0F828E062459D
:1021E00004BF09690163012141610169C90708BF91
:1021F00010BD016921F00101016110BD806B00215A
:10220000C185C184FFF7D8B981B090F84210222966
:1022100021D183680246B3F5805F09D152F8281FA7
:1022200052F8183C002B63D003685B680AE000BFDB
:1022300052F8281F13B90369002BF5D003685B68B7
:1022400003F07F030B70116801311160C18D0139FA
:102250000A04C18502D001B0704700BF0168CA6896
:1022600022F02002CA60CA6822F48072CA604A69F9
:1022700022F001024A61202180F8421000214163CE
:10228000026B012A3CD10163016851E8031F026817
:1022900021F0100142E80313DBB1016851E8031F8C
:1022A000026821F0100142E8031393B1016851E87C
:1022B000031F026821F0100142E803134BB10168CB
:1022C00051E8031F026821F0100142E80313002BBC
:1022D000DAD101680A68D20606D5002200920A689F
:1022E0000092496800910099818D01B0FFF762B9B1
:1022F000026852686FF35F2221F8022B8162A5E722
:1023000001B0FFF7A5BC000010B504460068D4E991
:1023100002C22369016921F44051114301616269DC
:1023200043EA0C01E3691143C268194349F20C63A3
:102330009A431143C1604169A26921F4407141F29D
:102340000043114340F48062C4F201039A424161A8
:1023500002D1FEF761FB01E0FEF74AFBE169636829
:102360001922B1F5004FA0FB020123D15A00DB0F67
:10237000FDF78CFF48F21F51C5F2EB11A0FB0123C2
:102380005A094FF69C73C0F6FF7303F1805302FBAA
:102390000300322303EBC000A0FB01014FF4F870EF
:1023A00000EA111000EB0210C1F342110844216849
:1023B000886010BD9A009B0FFDF768FF48F21F511F
:1023C000C5F2EB11A0FB01235A094FF69C73C0F62E
:1023D000FF7302FB0300322303EB0010A0FB01019B
:1023E000F02000EA511000EB0210C1F34311084441
:1023F0002168886010BD000040F21410C2F2000095
:10240000FFF7DCB8FEE70000FEF758F9FFF7DEFD46
:10241000FFF770FCFFF7DEFCFFF782FDFFF7AAFD78
:1024200040F2700540F21414C2F20005C2F200043A
:10243000E91C204601220126FFF7E0FB6878A97815
:102440008842FBD028780028F8D1687801222844F7
:1024500000F10B012046FFF727FC2E706878013051
:1024600000F007006870E9E7F1EE100A4FF6FF711F
:10247000C0F2C03120EA010040F04070E1EE100AE5
:10248000704700000000000000000102030406077E
:10249000080900000000010203040800C02400082D
:1024A0000000002010000000E8010008D02400080F
:1024B0001000002050070000040200080000000087
:1024C00001000000100000000024F40000000000E3
:04000005080001AD41
:00000001FF
