:020000040800F2
:100000000000032069190008291600082B160008B3
:100010002D1600082F1600083116000800000000F9
:10002000000000000000000000000000331600087F
:1000300035160008000000003716000839160008C1
:10004000B9190008B9190008B9190008B919000848
:10005000B9190008B9190008B9190008B919000838
:1000600041160008B9190008B9190008B9190008A3
:10007000B9190008B9190008B9190008B919000818
:10008000B9190008B9190008B9190008B919000808
:10009000B9190008B9190008B9190008B9190008F8
:1000A000B91900084D160008B9190008B919000857
:1000B000B9190008B9190008B9190008B9190008D8
:1000C000B9190008B9190008B9190008B9190008C8
:1000D000B9190008B9190008B9190008B9190008B8
:1000E000B9190008B9190008B9190008B9190008A8
:1000F000B9190008B9190008B9190008B919000898
:10010000B9190008B9190008B9190008B919000887
:10011000B9190008B91900085D160008B9190008D6
:10012000B9190008B9190008B9190008B919000867
:10013000B9190008B9190008B9190008B919000857
:10014000B9190008B9190008B9190008B919000847
:10015000B9190008B9190008B91900086D16000886
:10016000B9190008B9190008B9190008B919000827
:10017000B9190008B9190008B919000800000000F1
:10018000B9190008B9190008B9190008B919000807
:10019000B9190008B9190008B9190008B9190008F7
:0C01A0000000000000000000B919000879
:1001AC0010B5054C237833B9044B13B10448AFF3A5
:1001BC0000800123237010BD3401002000000000DA
:1001CC001835000808B5034B1BB103490348AFF3BE
:1001DC00008008BD00000000380100201835000820
:1001EC0053B94AB9002908BF00281CBF4FF0FF3192
:1001FC004FF0FF3001F0F6B8ADF1080C6DE904CE0C
:10020C0000F006F8DDF804E0DDE9022304B07047E5
:10021C002DE9F047089D0C46002B4ED194468C4599
:10022C008646B2FA82F262D94AB1C2F120039140F9
:10023C0020FA03F30CFA02FC194300FA02FE4FEA0F
:10024C001C471FFA8CF6B1FBF7F44FEA1E4307FB71
:10025C00141143EA014304FB06F199420AD91CEB41
:10026C00030304F1FF3080F01281994240F20F81B8
:10027C00023C6344591A1FFA8EF3B1FBF7F007FBEB
:10028C00101143EA014300FB06F69E420AD91CEB0F
:10029C00030300F1FF3180F0FC809E4240F2F980B4
:1002AC00634402389B1B40EA044000211DB1D3403B
:1002BC000022C5E90032BDE8F0878B4205D90DB1AB
:1002CC00C5E9000100210846F5E7B3FA83F10029DE
:1002DC0046D1A34202D39042C0F0F080861A64EB60
:1002EC0003030120002DE6D0C5E90063E3E7002AF3
:1002FC0040F09080A1EB0C044FEA1C481FFA8CF7DD
:10030C000121B4FBF8F64FEA1E4308FB164443EAFE
:10031C00044307FB06F0984208D91CEB030306F1D3
:10032C00FF3402D2984200F2CD8026461C1A1FFAE6
:10033C008EF3B4FBF8F008FB104443EA044300FBD3
:10034C0007F79F4208D91CEB030300F1FF3402D2DC
:10035C009F4200F2B0802046DB1B40EA0640A5E736
:10036C00C1F120068B4022FA06F71F4320FA06FC47
:10037C0004FA01F343EA0C03F44000FA01F8380CD8
:10038C004FEA1349B4FBF0FE1FFA87FC00FB1E4436
:10039C0049EA04440EFB0CF9A14502FA01F20AD910
:1003AC003C190EF1FF3A80F08480A14540F2818027
:1003BC00AEF1020E3C44A4EB09041FFA83F9B4FB22
:1003CC00F0F300FB134449EA044403FB0CFCA44582
:1003DC0007D93C1903F1FF3067D2A44565D9023B1C
:1003EC003C4443EA0E40A0FB0293A4EB0C049C4259
:1003FC00CE469C4651D34ED055B1B8EB0E0364EBB0
:10040C000C0404FA06F6CB401E43CC40C5E900644C
:10041C00002150E7C2F1200320FA03F10CFA02FC90
:10042C0024FA03F394400C434FEA1C4800FA02FEF2
:10043C001FFA8CF7B3FBF8F008FB1031230C43EADE
:10044C00014300FB07F1994208D91CEB030300F1AF
:10045C00FF362CD299422AD9023863445B1AA4B2D3
:10046C00B3FBF8F108FB113344EA034401FB07F337
:10047C00A34208D91CEB040401F1FF3613D2A342AA
:10048C0011D902396444E41A41EA004139E70446BF
:10049C00F0E6084606E7C845AED2B9EB020E63EBB0
:1004AC00070C0138A8E73146EDE7034699E73046DB
:1004BC00D4E7D6467FE7634402384DE70646234629
:1004CC0008460FE7023E634430E700BF03685A005A
:1004DC004CBF43F0004323F000431844704700BF67
:1004EC002DE9F84349B34F1E044615463E464FF0DE
:1004FC00000909EB060101EBD171491004EBC108AD
:10050C004046FFF7E3FF8F4203464FEAC1000FD08E
:10051C000830AB42204407D8FFF7D8FF0138A84277
:10052C0008D201F10109E4E7894506D04E1EE0E747
:10053C00AB42F9D84046BDE8F8834FF0000840467E
:10054C00BDE8F883012807D0022807D0044B002807
:10055C000CBF18460020704702487047024870478D
:10056C00190C00081D0C0008210C000830B5214B9B
:10057C0083B004468D1E1BB301A92846AFF300803F
:10058C0088B301992A46FFF7ABFF014658B3FFF732
:10059C009DFF4B68A064012B28D0002B01F10400B7
:1005AC001FDBFFF793FF002323650368E064002B38
:1005BC000DDBFFF78BFF03460020236103B030BD3A
:1005CC000D4B0E49C91AC91018460191DAE7C3F34D
:1005DC000360FFF7B7FF034628B10020236103B087
:1005EC0030BD0123E0E700230920E6E700230520C6
:1005FC00E3E700BF000000006C350008343600084B
:10060C000368DA0710B5044606D49B0700F14800CE
:10061C0009D500F069FC2368590709D51A070ED5CE
:10062C00DB0613D510BD00F057FC23685907F5D431
:10063C0004F1D00000F060FC23681A07F0D404F534
:10064C00A87000F061FC2368DB06EBD404F5E870BD
:10065C00BDE8104000F09CBC0920704703460068C0
:10066C0000B11844704700BF704700BF70B5044616
:10067C000E46316C2046FFF779FF054688B9326C7F
:10068C006261236932462146012098470828F0D040
:10069C00072806D12846316CFFF7E6FF301D00F025
:1006AC000FFC02F041FE00BF2DE9F0470D1DD0F804
:1006BC000C80D0F81890074614460FCDADF5727D1E
:1006CC000DF10C0CACE80F000FCDACE80F000FCD0A
:1006DC00ACE80F0095E80F0002AE4FF0000E8CE86E
:1006EC000F00C6F800E020E0336C7B614FF4F07231
:1006FC0031467AA802F098FE3B697AAA39465046F0
:10070C009847889B73642146CDE9006905463B46B2
:10071C003A460120C047044618BB4FF4F0727AA940
:10072C00304602F081FE082D19D1316C3846FFF7A6
:10073C001DFF09345FFA84FA05460028D4D0B36B48
:10074C0073643A46CDE900693B464AF0100101203A
:10075C00C04730B928460DF5727DBDE8F087072DEE
:10076C0005D0092528460DF5727DBDE8F087204699
:10077C00316CFFF779FF03A800F0A2FB406C7047C7
:10078C00F0B5CB6B0B6401F1040C0E460546BCE8CE
:10079C000F00F9B001AC0FC4BCE80F000FC4BCE8EB
:1007AC000F000FC49CE80F004FF0FF3784E80F00D8
:1007BC00009706E02B696A462946984708280446A4
:1007CC0008D110992846FFF7D1FE0028F2D0092055
:1007DC0079B0F0BD6846FFF713FF062CF7D1314610
:1007EC002846FFF743FF00BFC160D96B82611964D3
:1007FC000022194658E700BF70B5C66843690B6400
:10080C00AEB903690A4604460D46014602209847D4
:10081C00072805D008280FD129462046FFF726FFC8
:10082C003046296CFFF720FF281D00F049FB012200
:10083C00FFF73AFF02F078FD02F076FDC2681AB1BC
:10084C00CA6B0A6400222FE79AE700BF704700BF0B
:10085C00836801460BB1012018477047012910D05D
:10086C0009D883B90F2A0ED800EB820218465368B8
:10087C00009A13607047033901298CBF02200120B4
:10088C007047084670470220704700BF00B585B01E
:10089C000A46002303A900911946FFF7DFFF0398CE
:1008AC0005B05DF804FB00BF012910D009D883B94D
:1008BC000F2A0ED8009900EB820209685160184685
:1008CC007047033901298CBF02200120704708466C
:1008DC0070470220704700BF10B584B0002303ACF2
:1008EC00039200940A461946FFF7DEFF04B010BDD0
:1008FC0070B5D36B136402F1040C05460C46BCE8CE
:10090C000F00ADF50E7D0DF15C0EAEE80F00BCE8EE
:10091C000F00AEE80F00BCE80F00AEE80F009CE83B
:10092C000F004FF0FF368EE80F00169610E0FFF721
:10093C00D3FF214616A8A847034616AA69460820E5
:10094C0083B9049B9847052806460CD0092809D082
:10095C0026996846FFF70AFE03466A460C2116A83C
:10096C00002BE4D0092616A8FFF74AFE30460DF5F9
:10097C000E7D70BD2DE9F04F9346CA6C89B00D46C3
:10098C0052F8041B069200F0030C002B79D00C0CCF
:10099C008DF81D400904E4B2059102EB840202219A
:1009AC002F6D8DF81C10BCF1020F08BFAA6B17F04D
:1009BC0001070CD005A9584600F084FB18B9082093
:1009CC0009B0BDE8F08F092009B0BDE8F08F1668BA
:1009DC00002EEFD000F008010191B2460297644658
:1009EC009946B9F1020F48D0B2F800A0568802F12E
:1009FC000408AA6C26F001030F2158469F18FFF734
:100A0C0045FF874237D82AF001023A44824294BF0C
:100A1C0000220122730003F002030AF0010A43EAE8
:100A2C000A03012B47D0022B31D0002BCBD114B1B0
:100A3C00002A40F0C98008F10402D2F800A0BAF1F3
:100A4C00000FCED105A95846029F00F03BFB0028B1
:100A5C00B9D1002FB3D00F215846FFF717FF0E2145
:100A6C0002465846FFF738FF674A0F215846FFF7F2
:100A7C0033FF0720A8E70022CCE7566802F10808EC
:100A8C00B7E7090205918DF81D30032188E7D8F8E6
:100A9C00006026F00043002C44D122B1019A002AB8
:100AAC005AD0002B58D0002E01DA08F1040801337B
:100ABC0008EB8302C1E7ECB9CAB1D8F80430D8F816
:100ACC000020991C4FEAD2723FF47DAF05F158011A
:100ADC000133049100F08B8008F10400FFF7BEFD98
:100AEC0004AB01462846AFF30080002857D108F12B
:100AFC000802A2E70D215846FFF7C8FE2B6A834275
:100B0C00F5D1AB6A9845F2D14046FFF7DFFC0F21D7
:100B1C0002465846FFF7E0FE2A4600215846FFF7EA
:100B2C00DBFEA6E70D2158460393FFF7AFFE2A6ABA
:100B3C00039B8242B7D1AA6A9045B4D10027042204
:100B4C00C5E90B724244AB626A63D8F80020BA4222
:100B5C0055DB01220292AAE7039408F1040A00264D
:100B6C0005F158071C460DE050460497FFF776FD3B
:100B7C000022014604AB284601360AF1040AAFF301
:100B8C000080E0B9A642EFD10D215846FFF77EFE5A
:100B9C00049BC5F82880C5E90803062014E7044621
:100BAC000D215846FFF772FE049E2862022C04BFEA
:100BBC00EE6205F12C06C5E90968062004E7234618
:100BCC00D8F80060039C6EE74046FFF77FFC08F105
:100BDC0004020446AA632846AFF3008000283FF4C1
:100BEC00F2AE22460F215846FFF776FE41E70C463F
:100BFC0058460D21FFF74AFE26462862DBE7581CB3
:100C0C0008EB800081E700BF000000000023B1E684
:100C1C000123AFE60223ADE62DE9F0430646C3B04F
:100C2C0015461C46042900F2D180DFE801F0AC51D6
:100C3C00CF2A0300002C40F0C980102A00F2C68095
:100C4C000368DC0600F1E78020AF384600F0AAF913
:100C5C00B46B394600234FF0010C0CFA03F22A4214
:100C6C00204603F1010303D050F8042B0A6004461C
:100C7C00042B01F10401F0D1B463384600F088F97B
:100C8C0099E0032C40F0A28094B204EB1243102B99
:100C9C004FEA124500F29A8003681F0700F1C380E7
:100CAC0020AF384600F052F9B26B07EBC50154B1D6
:100CBC000B46D01A01EBC401E4001D5843F8045B49
:100CCC008B42FAD12244B263384600F01DF972E02F
:100CDC00012C4FEA124895B271D0052C76D108EB55
:100CEC000509B9F1200F71D8B8F10F0F72D8B9F10D
:100CFC00100F036800F29F80D90708D523F0010379
:100D0C00304643F0020340F8483B00F0F1F820AFC6
:100D1C00384600F0EDF8B36B002D00F0B9806D0093
:100D2C006A1E07EBC80100250132043903EB82026D
:100D3C0053F8040B41F8040F9342F9D1002D00F045
:100D4C00A1804146102938BF10216B0010396F4625
:100D5C00013B07EBC1010133043902EB830352F869
:100D6C00040B41F8040F9A42F9D1012C00F0888051
:100D7C00B8F10F0FB26302D820A800F0B5F83846CE
:100D8C0000F0BAF817E00CBB806B23461FFA82FC0C
:100D9C000124371D04FA03F111EA0C0F024604D0AA
:100DAC0052F8041B47F8231010460133102BF1D1D5
:100DBC00AC0400D4B063002043B0BDE8F08308EB72
:100DCC000503102B02D8B8F1100F14D1022043B038
:100DDC00BDE8F083002DEED003685A075CD46F4653
:100DEC00384600F08DF8B26B6B00A8F11001013B96
:100DFC0007EBC101AFE70368DA0759D420AF3846D7
:100E0C0000F06EF8B36B002D89D10433B363384610
:100E1C0000F062F8CFE723F01003036000F5E870F0
:100E2C0000F0C0F810E723F00803036000F5A87089
:100E3C0000F08CF834E7D90708D523F0010343F010
:100E4C00020340F8483B00F053F83368580706D5C6
:100E5C00304623F0040340F8D03B00F051F820AFAB
:100E6C00384600F045F8684600F04AF8C8F1100220
:100E7C005200B36BA9F11005013A07EBC80153E717
:100E8C0020AFC2E7012CC0D0B8F10F0FB36392D8DA
:100E9C00384600F029F88EE723F0040340F8D03BE5
:100EAC006F4600F02DF8384600F02AF8B26B9BE73D
:100EBC00304623F0030340F8483B00F011F89DE75F
:100ECC0000F1340191E838009C46A6464CF8045DCC
:100EDC0090E8FF0FE54600BD90EC210B704700BF7A
:100EEC0080EC210B704700BF90EC200B704700BFCB
:100EFC0080EC200B704700BFD0EC200B704700BF7C
:100F0C00C0EC200B704700BFF0EC0201F0EC0211BA
:100F1C00F0EC0221F0EC0231F0EC0241F0EC025169
:100F2C00F0EC0261F0EC0271F0EC0281F0EC029159
:100F3C00F0EC02A1F0EC02B1F0EC02C1F0EC02D149
:100F4C00F0EC02E1F0EC02F1704700BFE0EC0201C2
:100F5C00E0EC0211E0EC0221E0EC0231E0EC0241A9
:100F6C00E0EC0251E0EC0261E0EC0271E0EC028199
:100F7C00E0EC0291E0EC02A1E0EC02B1E0EC02C189
:100F8C00E0EC02D1E0EC02E1E0EC02F1704700BFD2
:100F9C00B0FC0181B0FC0191B0FC01A1B0FC01B12D
:100FAC00704700BFA0FC0181A0FC0191A0FC01A135
:100FBC00A0FC01B1704700BFEC4600B52DE9005014
:100FCC002DE9FF1F4FF000032DE90C0001A9FFF7DD
:100FDC00D7FBDDF840E012B0704700BFEC4600B51F
:100FEC002DE900502DE9FF1F4FF000032DE90C00F7
:100FFC0001A9FFF701FCDDF840E012B0704700BF1B
:10100C00EC4600B52DE900502DE9FF1F4FF0000311
:10101C002DE90C0001A9FFF711FCDDF840E012B03E
:10102C00704700BFEC4600B52DE900502DE9FF1FBD
:10103C004FF000032DE90C0001ABFFF7D5FBDDF8F9
:10104C0040E012B0704700BFEC4600B52DE90050EF
:10105C002DE9FF1F4FF000032DE90C0001AAFFF74B
:10106C0047FCDDF840E012B0704700BF027A03463F
:10107C007AB9427AA2B14168013A10B44272086856
:10108C0003220C1D1A7202025C60000E10BC1A6066
:10109C0070470068013A1A7202021A60000E70471B
:1010AC00B020704700B585B0002303AA0092194602
:1010BC000C22FFF7D3FB039805B05DF804FB00BFCF
:1010CC00F0E700BF2DE9F043064685B00D464FF022
:1010DC0000082846FFF7CAFFB028044600F0DA8063
:1010EC00070646D500F0F003802B5ED0B02B73D0F2
:1010FC001BD8902B00F09B80A02B12D1C34303F084
:10110C0007034FF47F621A41010702F47F6201D595
:10111C0042F48042002319463046FFF77DFD00283B
:10112C00D7D0092005B0BDE8F083C02B6DD1C628FF
:10113C0000F09380C72800F0B28000F0F803C02BB9
:10114C0000F0D280C82800F0DD80C928E9D12846FB
:10115C00FFF78CFF020300F00F0002F47022013045
:10116C000243012105233046FFF756FD0028B0D07D
:10117C00D7E78300DBB21F1D0DF10C0900231946C4
:10118C00CDF800900D223046FFF768FB039BCDF89D
:10119C00009060064CBFDF1BFF1800230D22194680
:1011AC0030460397FFF780FB93E72846FFF75EFF77
:1011BC0024022043B0F5004FB3D004010023A2B2A7
:1011CC0019463046FFF728FD0028AAD114F4004F29
:1011DC0018BF4FF001087CE7B12851D0B22800F0BD
:1011EC00AD80B3286DD000F0FC03B42B99D000F087
:1011FC0007020132012342F4002219463046FFF760
:10120C000BFD00283FF465AF8BE700F0F803D02B03
:10121C0087D100F007020132052342F4002201219C
:10122C003046FFF7F9FC00283FF453AF79E700F0A4
:10123C000D030D2B3FF475AF03AF002300F00F022D
:10124C00194600973046FFF709FB002300970D2243
:10125C0019463046FFF728FB3BE72846FFF706FF09
:10126C00020300F00F00013002F47022032302434A
:10127C0019463046FFF7D0FC00283FF42AAF50E760
:10128C002846FFF7F3FE431EDBB20E2B02467FF619
:10129C0041AF46E7B8F1000F40D0002042E72846A6
:1012AC00FFF7E4FE431EDBB20E2B02463FF639AFCE
:1012BC00002304213046FFF7AFFC00283FF409AFB0
:1012CC002FE72846FFF7D2FE020300F00F00013093
:1012DC0002F470220123024319463046FFF79CFCAE
:1012EC0000283FF4F6AE1CE700F00F020132032396
:1012FC0042F4202219463046FFF78EFC00283FF4BA
:10130C00E8AE0EE72846FFF7B1FE00F0F00200F061
:10131C000F031032013343EA023222E703AC434697
:10132C0041460E2200943046FFF798FA009443464B
:10133C000F2241463046FFF7B7FAAEE700230DF116
:10134C000C090D221946CDF800903046FFF786FAAD
:10135C002846FFF78BFE0206039C4FF002070BD5C5
:10136C0000F07F00B840044428460394FFF77EFE4B
:10137C00030607F10707F3D400FA07F204F501742A
:10138C00224400230392CDF800900D2219463046DA
:10139C00FFF78AFA9DE600BF10B5C26C536884B0A3
:1013AC004FF0030C08321C0208461B0E01A90194D5
:1013BC0002928DF80CC08DF80D30FFF783FE04B04F
:1013CC0010BD00BF08B5FFF77BFE806C08BD00BFE9
:1013DC0008B5FFF775FEC06CC379023300EB8300D0
:1013EC0008BD00BF704700BF08B5064B834200D054
:1013FC0008BD05490A78054B1A700122014801F015
:10140C0080FFF5E7F001002050010020580100207A
:10141C0030B58DB000240794089409940A940B9469
:10142C000194314B1A6B42F040021A631A6B02F0B2
:10143C0040020192019A02941A6B42F001021A6363
:10144C001A6B02F001020292029A03941A6B42F098
:10145C0080021A631A6B02F080020392039A0494BE
:10146C001A6B42F002021A631A6B02F00202049227
:10147C00049A05941A6B42F010021A631A6B02F06C
:10148C0010020592059A06941A6B42F020021A6318
:10149C001B6B03F020030693069B144D22464FF45E
:1014AC008041284600F0B6FC042307934FF48813C0
:1014BC000893099407A90E4800F0A6FB4FF480434B
:1014CC0007930123089309940A9407A9284600F06E
:1014DC009BFB22462146082000F010FB082000F060
:1014EC001DFB0DB030BD00BF00380240001402409F
:1014FC000004024072B6FEE700B595B03022002120
:10150C0008A801F018FF0023039304930593069396
:10151C0007930193224A116C41F080511164126CB3
:10152C0002F080520192019A02931E4A116841F412
:10153C0040411160126802F440420292029A022267
:10154C00089201210B9110210C910E920F930823FC
:10155C001093B423119312920423139308A800F050
:10156C00ADFCB0B900F06CFCA8B90F2303930223B7
:10157C000493002305934FF4A05306934FF4805328
:10158C000793052103A800F0E9FE30B915B05DF80A
:10159C0004FBFFF7AFFFFFF7ADFFFFF7ABFF00BF9B
:1015AC00003802400070004008B500F027FAFFF741
:1015BC00A3FFFFF72DFF00F0FDF800F06BF800F033
:1015CC0071F901220449054801F09BFE08220449E7
:1015DC00024801F091FCF9E750010020F0010020D5
:1015EC005801002082B0002100910B4B5A6C42F440
:1015FC0080425A645A6C02F480420092009A019123
:10160C001A6C42F080521A641B6C03F080530193E5
:10161C00019B02B0704700BF00380240FEE7FEE7B6
:10162C00FEE7FEE7FEE770477047704708B500F02D
:10163C00FFF908BD08B5042000F0F4FB08BD00005C
:10164C0008B5024801F02BF808BD00BFA801002026
:10165C0008B5024801F023F808BD00BF6001002066
:10166C0008B5024801F0F0FC08BD00BFF0010020F5
:10167C000120704708B501F0ABFE162303604FF054
:10168C00FF3008BD08B54FF0FF31FFF7F3FFFEE761
:10169C007047000000B583B00023009301930F48FE
:1016AC000F4A026044F24F624260836042F20F7252
:1016BC00C260836101F00EF950B9002300930193CD
:1016CC006946064801F090FA28B903B05DF804FBAE
:1016DC00FFF710FFF1E7FFF70DFFF6E760010020C1
:1016EC000010004000B583B00368184A934205D03F
:1016FC00174A934216D003B05DF804FB0021009109
:10170C00144B5A6C42F001025A645B6C03F00103F7
:10171C000093009B0A46192000F0F0F9192000F004
:10172C00FDF9E8E7002101910A4B1A6C42F0100216
:10173C001A641B6C03F010030193019B0A463620BC
:10174C0000F0DCF9362000F0E9F9D4E700000140A4
:10175C00001000400038024000B587B00023019310
:10176C00029303930493059302680F4B9A4202D0A1
:10177C0007B05DF804FB002300930C4B1A6B42F08E
:10178C0010021A631B6B03F010030093009B4FF4C1
:10179C0000630193022302930123059301A90448DA
:1017AC0000F032FAE4E700BF0000014000380240CC
:1017BC000010024010B596B00024129413941494A7
:1017CC0015941094119409940A940B940C940D9400
:1017DC000E940F942022214601A801F0ACFD2F4855
:1017EC002F4B036044F24F634360846042F20F73EB
:1017FC00C36004614461846101F06CF800283BD142
:10180C004FF48053129312A9244801F06DF900286B
:10181C0035D1224801F08AF8002833D100231093E7
:10182C00119310A91D4801F0DFF900282DD1602378
:10183C00099341F288330A9300230B930C930D9375
:10184C000E930F93042209A9144801F0D3F8F8B9A8
:10185C000023019302930393049305934FF40052D6
:10186C000692089301A90D4801F004FA98B90B48A7
:10187C00FFF772FF16B010BDFFF73CFEC0E7FFF795
:10188C0039FEC6E7FFF736FEC8E7FFF733FECEE7B3
:10189C00FFF730FEDCE7FFF72DFEE8E7A80100209C
:1018AC000000014008B50B480B4B03604FF4E133CB
:1018BC00436000238360C3604FF4806202610C229A
:1018CC0042618361C36101F0E7FA00B908BDFFF71B
:1018DC0011FEFBE7F00100200014014010B588B0A8
:1018EC000023039304930593069307930268194B03
:1018FC009A4201D008B010BD0024019403F5923334
:10190C005A6C42F020025A645A6C02F02002019286
:10191C00019A02941A6B42F040021A631B6B03F09B
:10192C0040030293029B4FF48443039302230493DA
:10193C00032306930823079303A9074800F064F9CF
:10194C0022462146472000F0D9F8472000F0E6F85F
:10195C00D0E700BF0014014000180240DFF834D07B
:10196C00FFF796FE0C480D490D4A002302E0D458AF
:10197C00C4500433C4188C42F9D30A4A0A4C0023CD
:10198C0001E013600432A242FBD301F027FDFFF704
:10199C000BFE7047000003200000002034010020E3
:1019AC00403600083401002010050020FEE700003E
:1019BC0010B504460E4B1A784FF47A73B3FBF2F35E
:1019CC000C4A1068B0FBF3F000F0ACF868B90F2CBF
:1019DC0001D901200AE0002221464FF0FF3000F02F
:1019EC008DF8054B1C60002000E0012010BD00BFED
:1019FC0004000020000000200800002008B50B4B5C
:101A0C001A6842F400721A601A6842F480621A6012
:101A1C001A6842F480721A60032000F05DF80F20FF
:101A2C00FFF7C6FFFFF7DEFD002008BD003C0240BB
:101A3C00034A1168034B1B780B441360704700BFBB
:101A4C003802002004000020014B1868704700BFCA
:101A5C0038020020002807DB00F01F024009012398
:101A6C009340024A42F82030704700BF00E100E08A
:101A7C00002808DB0901C9B200F1604000F56140A3
:101A8C0080F80013704700F00F000901C9B2014B38
:101A9C001954704714ED00E000B500F00700C0F1D8
:101AAC00070CBCF1040F28BF4FF0040C031D062BD0
:101ABC000FD9C31E4FF0FF3E0EFA0CF021EA0001C5
:101ACC0099400EFA03FE22EA0E0241EA02005DF88A
:101ADC0004FB0023EEE70000074AD36823F4E0631D
:101AEC001B041B0C000200F4E060034343F0BF63D3
:101AFC0043F40033D360704700ED00E010B50446AA
:101B0C00054BD868C0F30220FFF7C6FF01462046FC
:101B1C00FFF7AEFF10BD00BF00ED00E008B5FFF70A
:101B2C0099FF08BD0138B0F1807F0BD24FF0E02354
:101B3C005861054AF02182F8231000209861072291
:101B4C001A6170470120704700ED00E070B5044643
:101B5C00866DFFF779FF94F83530DBB2022B06D097
:101B6C0080236365002384F83430012070BD054662
:101B7C002268136823F0160313602268536923F05C
:101B8C0080035361236CE3B12268136823F00803CC
:101B9C0013602268136823F00103136023681B6829
:101BAC0013F0010F11D0FFF74FFF431B052BF5D995
:101BBC0020236365032084F83500002384F8343037
:101BCC00D4E7A36C002BDFD1E3E7E26D3F23934016
:101BDC00B360012384F83530002084F83400C5E765
:101BEC0090F83530DBB2022B03D080234365012003
:101BFC007047052380F835300268136823F0010321
:101C0C00136000207047000000230F2B00F2F980B6
:101C1C0030B583B069E085684FEA430E032404FABB
:101C2C000EF425EA0405CC6804FA0EF42C43846007
:101C3C00446824EA02044A68C2F300129A40224320
:101C4C00426060E0DC08083450F8242003F00705FB
:101C5C00AD004FF00F0E0EFA05FE22EA0E0E0A69C9
:101C6C00AA4042EA0E0240F8242060E0092200E07B
:101C7C00002202FA0EF22A430234624D45F8242067
:101C8C00614A94686FEA0C0224EA0C05D1F804E06E
:101C9C001EF4801F01D04CEA04055B4CA560E4687F
:101CAC0002EA0405D1F804E01EF4001F01D04CEA4E
:101CBC000405554CE560646802EA0405D1F804E0BB
:101CCC001EF4003F01D04CEA04054F4C65602468BB
:101CDC0022404D6815F4803F01D04CEA04024A4C76
:101CEC00226001330F2B00F28A8001229A400C688B
:101CFC0004EA020C32EA0404F3D14C6804F0030445
:101D0C00013C012C87D94A6802F00302032A09D04E
:101D1C00C4685D000322AA4024EA02048A68AA402F
:101D2C002243C2604A6802F00302022A8AD0046885
:101D3C004FEA430E032202FA0EF224EA02044A6826
:101D4C0002F0030202FA0EF2224302604A6812F415
:101D5C00403FC6D0002201922C4A546C44F480447B
:101D6C005464526C02F480420192019A9C08A51CA6
:101D7C00244A52F8255003F0030E4FEA8E0E0F2220
:101D8C0002FA0EF225EA0205214A90423FF470AFA6
:101D9C0002F58062904222D002F58062904220D0FF
:101DAC0002F5806290421ED002F5806290421CD0F7
:101DBC0002F5806290421AD002F58062904218D0EF
:101DCC0002F58062904216D002F58062904214D0E7
:101DDC0002F5806290423FF449AF0A2249E70122A2
:101DEC0047E7022245E7032243E7042241E70522A5
:101DFC003FE706223DE707223BE7082239E703B01D
:101E0C0030BD704700380140003C014000380240B2
:101E1C00000002400AB1816170470904816170477A
:101E2C007047000008B5054B5B69034200D108BD43
:101E3C00024B5861FFF7F4FFF9E700BF003C01408B
:101E4C0010B582B000230193194B1A6C42F08052EA
:101E5C001A641B6C03F080530193019B154B0122F8
:101E6C001A64FFF7F1FD0446134B5B6813F4803FD3
:101E7C0008D1FFF7E9FD001BB0F57A7FF4D90320F8
:101E8C0002B010BD0B4B01225A64FFF7DDFD044676
:101E9C00094B5B6813F4003F07D1FFF7D5FD001B1E
:101EAC00B0F57A7FF4D90320EAE70020E8E700BF19
:101EBC000038024000000E4200700040002800F084
:101ECC00E08170B582B00446036813F0010F3BD07B
:101EDC009F4B9B6803F00C03042B2CD09C4B9B68F2
:101EEC0003F00C03082B21D06368B3F5803F4FD06F
:101EFC00B3F5A02F52D0964B1A6822F480321A6098
:101F0C001A6822F480221A606368002B50D0FFF705
:101F1C009BFD05468E4B1B6813F4003F14D1FFF755
:101F2C0093FD401B6428F5D90320B1E1884B5B6815
:101F3C0013F4800FD8D0864B1B6813F4003F03D0EA
:101F4C006368002B00F09F81236813F0020F54D0BC
:101F5C007F4B9B6813F00C0F3ED07D4B9B6803F0BE
:101F6C000C03082B33D0E368002B68D0794B01228B
:101F7C001A60FFF769FD0546754B1B6813F0020FDD
:101F8C0054D1FFF761FD401B0228F5D903207FE1F6
:101F9C006F4A136843F480331360B5E76C4B1A68CF
:101FAC0042F480221A601A6842F480321A60ABE75D
:101FBC00FFF74AFD0546664B1B6813F4003FC3D080
:101FCC00FFF742FD401B6428F5D9032060E1604B0C
:101FDC005B6813F4800FC6D15D4B1B6813F0020FC6
:101FEC0003D0E368012B40F05081594A136823F069
:101FFC00F803216943EAC1031360236813F0080F47
:10200C0042D063696BB3534B0122C3F8802EFFF7A8
:10201C001BFD05464E4B5B6F13F0020F34D1FFF7DF
:10202C0013FD401B0228F5D9032031E1484A1368FF
:10203C0023F0F803216943EAC1031360DDE7454B44
:10204C0000221A60FFF700FD0546414B1B6813F098
:10205C00020FD2D0FFF7F8FC401B0228F5D9032061
:10206C0016E13C4B0022C3F8802EFFF7EDFC054631
:10207C00374B5B6F13F0020F06D0FFF7E5FC401BEC
:10208C000228F5D9032003E1236813F0040F77D05D
:10209C002F4B1B6C13F0805F33D1002301932C4B1F
:1020AC001A6C42F080521A641B6C03F0805301933B
:1020BC00019B0125284B1B6813F4807F23D0A36858
:1020CC00012B34D0052B38D0214B1A6F22F0010292
:1020DC001A671A6F22F004021A67A368002B3DD00E
:1020EC00FFF7B2FC06461A4B1B6F13F0020F46D1DA
:1020FC00FFF7AAFC801B41F288339842F3D90320E6
:10210C00C6E00025D6E7144A136843F480731360C5
:10211C00FFF79AFC0646104B1B6813F4807FCED158
:10212C00FFF792FC801B0228F5D90320B0E0084A87
:10213C00136F43F001031367CFE7054B1A6F42F09F
:10214C0004021A671A6F42F001021A67C5E700BF52
:10215C00003802400000474200700040FFF774FC5A
:10216C000646524B1B6F13F0020F08D0FFF76CFCA6
:10217C00801B41F288339842F3D9032088E0EDB9F3
:10218C00A369002B00F08380484A926802F00C028D
:10219C00082A51D0022B17D0454B00221A66FFF7A4
:1021AC0053FC0446414B1B6813F0007F42D0FFF7F1
:1021BC004BFC001B0228F5D9032069E03B4A136C49
:1021CC0023F080531364DBE7394B00221A66FFF7C8
:1021DC003BFC0546354B1B6813F0007F06D0FFF720
:1021EC0033FC401B0228F5D9032051E0E369226A35
:1021FC001343626A43EA8213A26A5208013A43EA21
:10220C000243E26A43EA0263284A5360284B0122E4
:10221C001A66FFF719FC0446244B1B6813F0007F69
:10222C0006D1FFF711FC001B0228F5D903202FE083
:10223C0000202DE000202BE0012B2BD01B4B5B68EA
:10224C0003F48001E269914226D103F03F02216A36
:10225C008A4223D1616A47F6C0721A40B2EB811FE1
:10226C001ED103F44031A26A5208013AB1EB024F7D
:10227C0018D103F07063E26AB3EB026F14D1002043
:10228C0006E001207047012002E0012000E0002060
:10229C0002B070BD0120FBE70120F9E70120F7E750
:1022AC000120F5E70120F3E70120F1E700380240B7
:1022BC000000474208B5264B9B6803F00C03042B27
:1022CC0041D0082B41D1224B5A6802F03F025B6887
:1022DC0013F4800F12D01E4B5968C1F388111D489E
:1022EC000023A1FB0001FDF77BFF194B5B68C3F3D7
:1022FC00014301335B00B0FBF3F027E0144B58684B
:10230C00C0F388104FEA401CBCEB000C6EEB0E0EB9
:10231C004FEA8E1343EA9C634FEA8C11B1EB0C012C
:10232C0063EB0E03DB0043EA5173C90011EB000CA5
:10233C0043F10003990200234FEA8C2041EA9C519F
:10234C00FDF74EFFD1E7034800E0034808BD00BF8E
:10235C0000380240001BB7000024F400002800F0F5
:10236C009B8070B50D4604464F4B1B6803F00F0362
:10237C008B4208D2CBB24C4A1370136803F00F0394
:10238C008B4240F08B80236813F0020F17D013F0B0
:10239C00040F04D0454A936843F4E05393602368D8
:1023AC0013F0080F04D0414A936843F460439360E0
:1023BC003E4A936823F0F003A1680B4393602368B3
:1023CC0013F0010F32D06368012B21D09A1E012A21
:1023DC0025D9364A126812F0020F61D033498A6847
:1023EC0022F0030213438B60FFF72EFB06462F4BA4
:1023FC009B6803F00C036268B3EB820F16D0FFF7F7
:10240C0023FB801B41F288339842F0D9032042E031
:10241C00264A126812F4003FE0D101203BE0234A27
:10242C00126812F0007FD9D1012034E01E4B1B68DA
:10243C0003F00F03AB4207D9EAB21B4B1A701B68AF
:10244C0003F00F03AB422DD1236813F0040F06D019
:10245C00164A936823F4E053E1680B4393602368B6
:10246C0013F0080F07D0114A936823F460432169D5
:10247C0043EAC1039360FFF71DFF0C4B9B68C3F34A
:10248C0003130B4AD35CD8400A4B18600A4B1868EC
:10249C00FFF78EFA002070BD012070470120FAE78B
:1024AC000120F8E70120F6E7003C0240003802402A
:1024BC00383500080000002008000020014B186887
:1024CC00704700BF0000002008B5FFF7F7FF044B72
:1024DC009B68C3F38223034AD35CD84008BD00BF7A
:1024EC00003802403035000808B5FFF7E7FF044B11
:1024FC009B68C3F34233034AD35CD84008BD00BF8A
:10250C00003802403035000830B4036A026A22F009
:10251C00010202624268846924F0730C0C6844EA7C
:10252C000C0423F0020C8B6843EA0C03114DA842F7
:10253C0003D005F58065A84205D123F00803CD68CA
:10254C002B4323F004030B4DA84203D005F5806503
:10255C00A84207D122F440724D6945EA020C8A69FF
:10256C0042EA0C02426084614A684263036230BCF6
:10257C00704700BF0000014030B4036A026A22F4C5
:10258C00807202624268C46924F0730C0C6844EADD
:10259C000C0523F400738C6843EA0423114CA0420D
:1025AC0003D004F58064A04206D123F40063CC6808
:1025BC0043EA042323F480630A4CA04203D004F5BD
:1025CC008064A04207D122F440524C6942EA0412C2
:1025DC008C6942EA04124260C5614A68C2630362B4
:1025EC0030BC70470000014030B4036A026A22F428
:1025FC00805202624468C26922F4E6420D6842EAE3
:10260C00052223F400538D6843EA0533094DA84293
:10261C0003D005F58065A84204D124F480444D69AB
:10262C0044EA85144460C2614A680264036230BCA7
:10263C00704700BF0000014010B4036A046A24F024
:10264C0001040462846924F0F00C4CEA021223F0B9
:10265C000A030B438261036210BC704710B4036A17
:10266C00046A24F010040462846924F4704C4CEA6B
:10267C00023223F0A00343EA01138261036210BC0F
:10268C007047836823F070030B4343F007038360A8
:10269C00704770477047704770477047704770B508
:1026AC0004460368DE681D6915F0020F10D016F0A1
:1026BC00020F0DD06FF002021A6101230377036839
:1026CC009B6913F0030F5ED0FFF7E6FF002323771F
:1026DC0015F0040F12D016F0040F0FD023686FF012
:1026EC0004021A610223237723689B6913F4407F49
:1026FC004FD02046FFF7D0FF0023237715F0080FAB
:10270C0012D016F0080F0FD023686FF008021A6170
:10271C00042323772368DB6913F0030F40D0204692
:10272C00FFF7BAFF0023237715F0100F12D016F025
:10273C00100F0FD023686FF010021A610823237753
:10274C002368DB6913F4407F31D02046FFF7A4FFE8
:10275C000023237715F0010F02D016F0010F2DD1B5
:10276C0015F0800F02D016F0800F2FD115F0400F0E
:10277C0002D016F0400F31D115F0200F02D016F018
:10278C00200F33D170BDFFF786FF2046FFF785FF82
:10279C009CE72046FFF77FFF2046FFF77EFFABE765
:1027AC002046FFF778FF2046FFF777FFBAE7204671
:1027BC00FFF771FF2046FFF770FFC9E723686FF042
:1027CC0001021A612046FFF765FFC9E723686FF025
:1027DC0080021A61204600F077FAC7E723686FF091
:1027EC0040021A612046FFF759FFC5E723686FF0D6
:1027FC0020021A61204600F066FAC3E70368344AE7
:10280C00904212D0B0F1804F0FD0A2F57C42904292
:10281C000BD002F58062904207D002F580629042A4
:10282C0003D002F57842904203D123F070034A683A
:10283C001343274A90422AD0B0F1804F27D0A2F5FB
:10284C007C42904223D002F5806290421FD002F568
:10285C00806290421BD002F57842904217D002F56C
:10286C007052904213D002F5806290420FD002F564
:10287C00806290420BD0A2F59832904207D002F5BC
:10288C008062904203D002F58062904203D123F41F
:10289C004073CA68134323F080034A6913430360EF
:1028AC008B68C3620B688362094B984203D003F5B3
:1028BC008063984201D10B6903630123436103696F
:1028CC0013F0010F03D0036923F001030361704778
:1028DC000000014040B310B5044690F83D30F3B110
:1028EC00022384F83D30214651F8040BFFF786FF94
:1028FC00012384F8463084F83E3084F83F3084F865
:10290C00403084F8413084F8423084F8433084F805
:10291C00443084F8453084F83D30002010BD80F8F8
:10292C003C30FEF7DFFEDBE70120704740B310B50B
:10293C00044690F83D30F3B1022384F83D30214633
:10294C0051F8040BFFF75AFF012384F8463084F842
:10295C003E3084F83F3084F8403084F8413084F8BD
:10296C00423084F8433084F8443084F8453084F89D
:10297C003D30002010BD80F83C30FFF78AFEDBE7CD
:10298C000120704730B4036A026A22F0100202621E
:10299C004468826922F4E6420D6842EA052223F07B
:1029AC0020038D6843EA0513114DA84203D005F5A9
:1029BC008065A84206D123F08003CD6843EA051355
:1029CC0023F040030A4DA84203D005F58065A842C8
:1029DC0007D124F440644D6944EA85048D6944EAC6
:1029EC008504446082614A688263036230BC70472C
:1029FC000000014038B590F83C30012B66D00446FD
:102A0C000D46012380F83C300C2A5AD8DFE802F03E
:102A1C00075959591B59595930595959440000688B
:102A2C00FFF772FD2268936943F0080393612268F3
:102A3C00936923F0040393612268936929690B431A
:102A4C00936100203EE00068FFF79CFF22689369C9
:102A5C0043F4006393612268936923F48063936168
:102A6C0022689369296943EA01239361002029E0D4
:102A7C000068FFF781FD2268D36943F00803D36136
:102A8C002268D36923F00403D3612268D3692969CE
:102A9C000B43D361002015E00068FFF7A5FD226809
:102AAC00D36943F40063D3612268D36923F4806350
:102ABC00D3612268D369296943EA0123D3610020D9
:102ACC0000E00120002384F83C3038BD0220FCE7F4
:102ADC0010B4846824F47F4C42EA03220A4342EA8D
:102AEC000C02826010BC704790F83C30012B78D0FF
:102AFC0010B50446012380F83C30022380F83D30A9
:102B0C000268936823F47F4323F0770393600B6888
:102B1C00602B4CD029D8402B54D00CD9502B22D11F
:102B2C00CA6849680068FFF787FD50212068FFF7E5
:102B3C00A8FD002005E0202B0DD009D9302B0AD0A0
:102B4C000120012384F83D30002384F83C3010BD73
:102B5C000BB1102B05D119462068FFF792FD002010
:102B6C00EFE70120EDE70120EBE7B3F5805F34D010
:102B7C00B3F5005F0CD1CB684A6889680068FFF731
:102B8C00A7FF2268936843F4804393600020D8E742
:102B9C00702B24D1CB684A6889680068FFF798FFCE
:102BAC002268936843F0770393600020C9E7CA68F2
:102BBC0049680068FFF752FD60212068FFF761FD4E
:102BCC000020BEE7CA6849680068FFF735FD402160
:102BDC002068FFF756FD0020B3E70020B1E7012085
:102BEC00AFE702207047000090F83C20012A3CD04F
:102BFC0010B40346012280F83C20022280F83D20CC
:102C0C0002685068946820F0700C086840EA0C0068
:102C1C0050601A68164882421AD0B2F1804F17D011
:102C2C00A0F57C40824213D000F5806082420FD028
:102C3C0000F5806082420BD000F57840824207D0CC
:102C4C0000F57050824203D0A0F59430824204D13A
:102C5C0024F08004496821439160012283F83D20CF
:102C6C00002083F83C0010BC70470220704700BF66
:102C7C0000000140024690F83C30012B21D001238A
:102C8C0080F83C30CB6823F440738868034323F40A
:102C9C0080634868034323F400630868034323F408
:102CAC0080530869034323F400534869034323F416
:102CBC008043C9690B4311684B64002082F83C00C7
:102CCC0070470220704770477047026802F10C038E
:102CDC0053E8003F23F490730C3242E80031002992
:102CEC00F3D1026802F1140353E8003F23F001030F
:102CFC00143242E800310029F3D1036B012B05D0CB
:102D0C00202380F84230002303637047026802F1ED
:102D1C000C0353E8003F23F010030C3242E800315F
:102D2C000029F3D1ECE790F84130DBB2212B01D034
:102D3C00022070478368B3F5805F17D0036A5A1C72
:102D4C0002621A7803685A60C38C9BB2013B9BB237
:102D5C00C3844BB90268D36823F08003D360026844
:102D6C00D36843F04003D360002070470369002B05
:102D7C00E4D1036A1B880268C3F308035360036A37
:102D8C0002330362E0E7000010B5044602681369E1
:102D9C0023F44053C1680B431361836802691A43DF
:102DAC0043691A43C3691A430168CB6823F4164379
:102DBC0023F00C031343CB600268536923F4407374
:102DCC0081690B4353610368314A934206D002F583
:102DDC008062934202D0FFF777FB01E0FFF784FBA0
:102DEC00E369B3F5004F29D00021031849411B18A2
:102DFC0041F10001C90041EA5371DB001818636806
:102E0C004FEA83024FEA937341F10001FDF7E8F9B1
:102E1C00204AA2FB00314909642303FB11031B0167
:102E2C003233A2FB03235B0903F0F00202EB011225
:102E3C0003F00F03216813448B6010BD00230218AC
:102E4C0043EB0301121841F10001C90041EA527130
:102E5C00D200101841F10001626892185B41FDF735
:102E6C00BFF90C4AA2FB00314909642303FB11038F
:102E7C00DB003233A2FB03235B095A0002F4F87225
:102E8C0002EB011203F00703216813448B60D4E7B3
:102E9C00001001401F85EB5160B310B5044690F84B
:102EAC00413013B3242384F841302268D36823F4CF
:102EBC000053D3602046FFF767FF2268136923F4A1
:102ECC00904313612268536923F02A0353612268EB
:102EDC00D36843F40053D36000206064202384F84B
:102EEC00413084F84230606310BD80F84030FEF70A
:102EFC00F5FCD7E70120704790F84130DBB2202B6E
:102F0C0010D189B192B101628284C28400234364DE
:102F1C00212280F841200168CA6842F08002CA6010
:102F2C0018467047022070470120704701207047F7
:102F3C00704708B50168CA6822F04002CA602022B6
:102F4C0080F84120FFF7F4FF002008BD704708B55A
:102F5C00806B0023C385C384FFF7F8FF08BD70475F
:102F6C0090F84230DBB2222B69D18368B3F5805FD5
:102F7C004FD0826AB3F5805F04D0002B56D1036921
:102F8C00002B53D103685B681370836A013383622F
:102F9C00C38D9BB2013B9BB2C385002B51D100B5B5
:102FAC0083B00268D36823F02003D3600268D3682F
:102FBC0023F48073D3600268536923F001035361D7
:102FCC00202380F8423000234363036B012B33D161
:102FDC0000230363026802F10C0353E8003F23F063
:102FEC0010030C3242E800310029F3D103681A684F
:102FFC0012F0100F06D0002201921A6801925B6841
:10300C000193019B818DFFF7AAFF002003B05DF8AF
:10301C0004FB0269002AACD1826A03685B68C3F3C3
:10302C0008031380836A02338362B1E703685B6829
:10303C0003F07F031370A8E7FEF7D6F9E5E702204B
:10304C00704700207047000010B582B0044602683B
:10305C001368D068516913F00F0F09D113F0200FCA
:10306C000CD010F0200F09D02046FFF779FF16E0A6
:10307C0011F0010115D110F4907F12D1216B0129AF
:10308C0079D013F0800F03D010F0800F40F0148132
:10309C0013F0400F03D010F0400F40F0118102B03C
:1030AC0010BD13F0010F06D010F4807F03D0626CBA
:1030BC0042F00102626413F0040F04D019B1626C87
:1030CC0042F00202626413F0020F04D019B1626C78
:1030DC0042F00402626413F0080F07D010F0200FC6
:1030EC0000D119B1626C42F008026264626C002A71
:1030FC00D5D013F0200F02D010F0200F29D1236867
:10310C005B6903F04003626C12F0080F00D163B3EB
:10311C002046FFF7DAFD23685B6913F0400F20D0DF
:10312C00226802F1140353E8003F23F040031432E9
:10313C0042E800310029F3D1E36B73B1624A1A659E
:10314C00E06BFEF74DFD0028A9D0E06B036D9847AE
:10315C00A5E72046FFF704FFD1E72046FFF7F6FE70
:10316C009DE72046FFF7F2FE99E72046FFF7EEFEBB
:10317C000023636493E713F0100F82D010F0100F4C
:10318C003FF47FAF002301931368019353680193BD
:10319C00019B536913F0400F52D0E26B13685B68CC
:1031AC009BB2002B3FF47BAFA18D99427FF677AF9A
:1031BC00E385D369B3F5807F37D0226802F10C0325
:1031CC0053E8003F23F480730C3242E800310029AD
:1031DC00F3D1226802F1140353E8003F23F00103FA
:1031EC00143242E800310029F3D1226802F11403B1
:1031FC0053E8003F23F04003143242E80031002929
:10320C00F3D1202384F8423000232363226802F197
:10321C000C0353E8003F23F010030C3242E800315A
:10322C000029F3D1E06BFEF791FC02236363A18DBF
:10323C00E38D9BB2C91A89B22046FFF790FE2EE7A8
:10324C00A18DE38D9BB2C91A89B2E38D9BB2002B81
:10325C003FF425AF00293FF422AF226802F10C03A2
:10326C0053E8003F23F490730C3242E800300028FE
:10327C00F3D1226802F1140353E8003F23F0010359
:10328C00143242E800300028F3D1202384F8423075
:10329C0000232363226802F10C0353E8003F23F060
:1032AC0010030C3242E800300028F3D10223636390
:1032BC002046FFF754FEF2E62046FFF734FDEEE61B
:1032CC002046FFF736FEEAE65B2F00088162828516
:1032DC00C28500234364222380F84230036923B162
:1032EC000268D36843F48073D3600268536943F077
:1032FC00010353610268D36843F02003D3600020BC
:10330C00704708B590F84230DBB2202B08D149B198
:10331C000AB9012008BD00230363FFF7D7FFF9E7C3
:10332C000220F7E70120F5E708B5062000F034F895
:10333C000120FEF7A7F902440346934200D17047DF
:10334C0003F8011BF9E71F2938B505460C4604D9CB
:10335C00162303604FF0FF3038BDD0F8182112B19E
:10336C0052F821304BB9284600F030F8224601467D
:10337C002846BDE8384000F017B8012B0AD0591C7C
:10338C0003D1162303600120E6E7002142F8241044
:10339C00204698470020DFE7024B01461868FFF7EC
:1033AC00D2BF00BF0C00002038B5074D00230446E7
:1033BC00084611462B60FEF75DF9431C02D12B68C1
:1033CC0003B1236038BD00BF74030020FEF750B971
:1033DC00014B1868704700BF0C00002070B50D4DF4
:1033EC000D4C641BA4100026A64209D10B4D0C4CAD
:1033FC0000F08CF8641BA4100026A64205D170BD09
:10340C0055F8043B98470136EEE755F8043B9847CE
:10341C000136F2E73436000834360008343600083A
:10342C003C360008704770470A44914200F1FF3364
:10343C0000D1704710B511F8014B03F8014F9142C0
:10344C00F9D110BD024B13B1024800F005B870471A
:10345C000000000071340008002301461A4618468B
:10346C0000F014B838B5074D074C641BA4101CB9F8
:10347C00BDE8384000F050B8013C55F8243098476E
:10348C00F5E700BF3C360008403600082DE9F04750
:10349C00DFF86CA00646DAF8000098460F46914615
:1034AC00FFF7C0FF174B1C680CB9174C1C60656804
:1034BC00DAF800001F2D05DDFFF7B5FF4FF0FF30E8
:1034CC00BDE8F0879EB104EB85010122C1F888901C
:1034DC00D4F88831AA401343C4F88831022EC1F8BD
:1034EC00088102BFD4F88C311343C4F88C316B1CA7
:1034FC000235636044F82570FFF795FF0020DFE785
:10350C00300100207C03002080030020F8B500BFB0
:10351C00F8BC08BC9E467047F8B500BFF8BC08BCA8
:04352C009E46704700
:103530000000000001020304000000000000000081
:0835400001020304060708095B
:1035480008B10181B0B000840000000008B1018119
:10355800B0B000840000000008B10181B0B0008460
:04356800000000005F
:10356C00B0CCFF7F0100000004D0FF7FB0A9028027
:10357C0090D0FF7FB0B0A880E0D0FF7F01000000AA
:10358C00ECD0FF7FB0B0AA8020D1FF7FAE71B280AB
:10359C00ECD1FF7F01000000E8D1FF7FAB3F38800A
:1035AC0048D2FF7F0100000050D2FF7FB0B0AA804C
:1035BC008CD2FF7F0100000038D3FF7FAA0DB280B0
:1035CC00B4D3FF7FB0AF088044D6FF7F010000006A
:1035DC0048D6FF7FAD3F0280E8D8FF7F0100000096
:1035EC00C4DAFF7F00840480D8DAFF7F010000007A
:1035FC00D4DAFF7FB0AD0480A0DDFF7FB0A80380DC
:10360C00C4DDFF7F44FFFF7FC8DDFF7F48FFFF7FE6
:10361C00D4DDFF7F01000000D0DDFF7F20FFFF7FA6
:08362C00F0DDFF7F010000004A
:0836340051340008D101000827
:04363C00AD010008D4
:103640000024F40001000000100000001000002021
:10365000000000003C020020A40200200C03002017
:10366000000000000000000000000000000000005A
:10367000000000000000000000000000000000004A
:10368000000000000000000000000000000000003A
:10369000000000000000000000000000000000002A
:1036A000000000000000000000000000000000001A
:1036B000000000000000000000000000000000000A
:1036C00000000000000000000000000000000000FA
:1036D00000000000000000000000000000000000EA
:1036E00000000000000000000100000000000000D9
:1036F0000E33CDAB34126DE6ECDE05000B0000009E
:1037000000000000000000000000000000000000B9
:1037100000000000000000000000000000000000A9
:103720000000000000000000000000000000000099
:103730000000000000000000000000000000000089
:103740000000000000000000000000000000000079
:103750000000000000000000000000000000000069
:103760000000000000000000000000000000000059
:0437700078030020BA
:04000005080019696D
:00000001FF
